:100000000C94E2010C94140D0C94ED0C0C94930DD3
:100010000C94930D0C94930D0C940A020C940A0208
:100020000C940A020C940A020C940A020C940B0E13
:100030000C940A020C940A020C940A020C940A0210
:100040000C94A30C0C940A020C94610D0C943B0DBF
:100050000C940A020C940A020C940A020C940A02F0
:100060000C940A020C940A0241542B435343533D0F
:100070002247534D22004661696C656420746F20ED
:1000800073657420534D532074657874206D6F64CC
:1000900065004F4B0041542B434D47463D31004FC7
:1000A0004B002B434D47533A00534D532074696D19
:1000B000656F7574004E6F20534D532070726F6DD5
:1000C000707400534D5320636F6D6D616E642065D5
:1000D00072726F72004552524F5200534D5320744A
:1000E0006578742073656E742C2077616974696E0D
:1000F0006720666F7220636F6E6669726D617469E6
:100100006F6E2E2E2E002B4353513A0041542B4339
:1001100053510041542B435351002D2D2D2D2D2D86
:100120002D2D004552524F520050535554545A00F1
:1001300043545A5600445354004346554E004350CE
:10014000494E00434D4500434D544900534D530023
:100150005244590043616C6C005265616479004FF0
:100160004B0054696D656F75740052657472792027
:10017000534D5320746F2000534D532073656E749C
:1001800020746F20000A4F4B000D0A4F4B002B4884
:10019000545450524541443A0041542B534150422B
:1001A000523D302C310041542B4854545054455248
:1001B0004D0041542B53415042523D302C310041AF
:1001C000542B485454505445524D0041542B4854DC
:1001D0005450504152413D22434944222C31004168
:1001E000542B53415042523D302C310041542B4846
:1001F000545450494E49540041542B48545450547F
:1002000045524D0041542B53415042523D312C3107
:100210000041542B53415042523D312C31002D2D81
:100220002D2D2D2D2D2D0041542B53415042523D4B
:10023000332C312C22434F4E54595045222C224707
:10024000505253220041542B53415042523D302CC6
:10025000310041542B485454505445524D004154A0
:100260002B53415042523D302C310041542B4854C5
:1002700054505445524D0041542B4854545052450B
:100280004144004445414354004F4B0041542B48E6
:10029000545450414354494F4E3D3000535543430D
:1002A000455353004661696C656420746F20736523
:1002B0006E64206874747020726571756573740063
:1002C000526574727920666978656420534D532EA7
:1002D0002E2E0041542B53415042523D302C3100C0
:1002E00041542B485454505445524D0041542B48CE
:1002F000545450414354494F4E3D300041542B48D3
:10030000545450504152413D22434944222C310023
:1003100041542B48545450494E49540041542B48A1
:100320005454505445524D0041542B534150425265
:100330003D312C310041542B53415042523D332C1E
:10034000312C22434F4E54595045222C22475052B3
:1003500053220000000000240027002A00000000B3
:10036000090003020000040508000000000000006E
:10037000000000002D2D2D2D2D2D2D2D0000000015
:100380000023002600290000000000250028002B83
:10039000000404040404040404020202020202032E
:1003A0000303030303020203010204081020408038
:1003B00001020408102001020408102040804000BF
:1003C000E60E731911241FBECFEFD8E0DEBFCDBFFC
:1003D00025E0AAECB3E001C01D92AD30B207E1F711
:1003E00013E0A0E0B1E0E0EFF2E402C005900D926E
:1003F000AA3CB107D9F711E0C1EED1E004C02197C2
:10040000FE010E941E1FC03ED107C9F70E94A60F21
:100410000C946B210C94000090E0FC01E35AFC4F1B
:100420002491FC01E855FC4F3491FC01EF56FC4F40
:10043000E491EE23C9F0222339F0243001F1A8F42D
:10044000223069F1233079F1F0E0EE0FFF1FE95718
:10045000FC4FA591B4918FB7F894EC91611126C02F
:1004600030953E233C938FBF0895283071F029309A
:1004700091F0253049F7809180008F7D03C08091F5
:1004800080008F7780938000DFCF8091B0008F77DE
:100490008093B000D9CF8091B0008F7DF9CF84B523
:1004A0008F7784BDD1CF84B58F7DFBCF3E2BDACF44
:1004B000CF93DF9390E0FC01E855FC4F24918F56D9
:1004C0009C4FFC0184918823C9F090E0880F991F0C
:1004D000FC01ED5AFC4FA591B491FC01E957FC4F8A
:1004E000C591D49161110DC09FB7F8948C9120955E
:1004F00082238C938881282328839FBFDF91CF910B
:100500000895623051F49FB7F8943C91822F809502
:1005100083238C93E8812E2BEFCF8FB7F894EC9147
:100520002E2B2C938FBFEACF3FB7F89480913D04D8
:1005300090913E04A0913F04B091400426B5A89B41
:1005400005C02F3F19F00196A11DB11D3FBFBA2F65
:10055000A92F982F8827BC01CD01620F711D811D25
:10056000911D42E0660F771F881F991F4A95D1F7AA
:1005700008958F929F92AF92BF92CF92DF92EF92A7
:10058000FF924B015C010E9494026B017C01A895D3
:100590000E9494026C197D098E099F09683E734080
:1005A00081059105A0F321E0821A9108A108B10804
:1005B00088EEC80E83E0D81EE11CF11C8114910462
:1005C000A104B10429F7FF90EF90DF90CF90BF9086
:1005D000AF909F908F9008952FB7F8946091390451
:1005E00070913A0480913B0490913C042FBF089590
:1005F00081E080932F048093260480931C04109242
:100600001604109215041092130410921204089507
:1006100008950895EF92FF920F931F93CF93DF9366
:100620008C017B01D0E0C0E0F701EC0FFD1F64916D
:10063000662361F0D801ED91FC910190F081E02DED
:10064000C8010995892B11F02196EECFCE01DF91DB
:10065000CF911F910F91FF90EF900895AF92BF92AD
:10066000CF92DF92EF92FF920F931F93CF93DF937E
:100670006C017B018B01040F151FEB015E01AE18AD
:10068000BF08C017D10759F06991D601ED91FC91CF
:100690000190F081E02DC6010995892B79F7C501FC
:1006A000DF91CF911F910F91FF90EF90DF90CF904E
:1006B000BF90AF900895FC01538D448D252F30E0FD
:1006C000842F90E0821B930B541710F0CF9608955F
:1006D00001970895FC01918D828D981761F0A28D8C
:1006E000AE0FBF2FB11D5D968C91928D9F5F9F7352
:1006F000928F90E008958FEF9FEF0895FC01918D08
:10070000828D981731F0828DE80FF11D858D90E074
:1007100008958FEF9FEF0895FC01918D228D892F11
:1007200090E0805C9F4F821B91098F7399270895F9
:1007300081E494E00E948C0321E0892B09F420E0FD
:10074000822F089580E090E0892B29F00E94980381
:1007500081110C9400000895FC01A48DA80FB92FFD
:10076000B11DA35ABF4F2C91848D90E001968F73D9
:100770009927848FA689B7892C93A089B1898C91F8
:10078000837080648C93938D848D981306C0028847
:10079000F389E02D80818F7D80830895EF92FF9211
:1007A0000F931F93CF93DF93EC0181E0888F9B8D94
:1007B0008C8D98131AC0E889F989808185FF15C04E
:1007C0009FB7F894EE89FF896083E889F989808171
:1007D0008370806480839FBF81E090E0DF91CF9140
:1007E0001F910F91FF90EF900895F62E0B8D10E062
:1007F0000F5F1F4F0F731127E02E8C8D8E110CC0D1
:100800000FB607FCFACFE889F989808185FFF5CF1B
:10081000CE010E94AC03F1CFEB8DEC0FFD2FF11D4B
:10082000E35AFF4FF0829FB7F8940B8FEA89FB8958
:1008300080818062CFCFCF93DF93EC01888D8823B6
:10084000B9F0AA89BB89E889F9898C9185FD03C033
:10085000808186FD0DC00FB607FCF7CF8C9185FF18
:10086000F2CF808185FFEDCFCE010E94AC03E9CFAE
:10087000DF91CF9108952091100430911104281731
:10088000390771F490910E0480910F04981741F08C
:10089000E0910E04F0E0E253FC4F808190E0089577
:1008A0008FEF9FEF08950895EF92FF920F931F939C
:1008B000CF93DF93DC015C96ED90FC905D97E114A3
:1008C000F10479F481E090E013969C938E93129753
:1008D00090E080E0DF91CF911F910F91FF90EF901A
:1008E00008955196ED91FC91529750968C915097A6
:1008F000982F90950FB75E962C915E97122F1270DD
:1009000021FD6095F8942081112319F1282B208373
:10091000E7012197F1F728E0462F50E0308160FF92
:100920001AC0382B3083E7012197F1F7BA0175958A
:100930006795215089F7112381F080818923808375
:100940000FBF5C968D919C910197F1F781E090E04B
:10095000C1CF2923DCCF3923E5CF9081892BEFCF7D
:1009600020911004309111042817390761F4809107
:100970000F0420910E0490E0805C9F4F821B910930
:100980008F739927089590E080E0089520911004D6
:100990003091110428173907B9F490910E04809111
:1009A0000F04981789F0E0910E04F0E0E253FC4F39
:1009B000808120910E0430E02F5F3F4F2F7333274B
:1009C00020930E0490E008958FEF9FEF08950F930A
:1009D0001F930E94EC026093EC047093ED048093EB
:1009E000EE049093EF0484EE94E00E94C60497FF17
:1009F0001DC00E94EC020091EC041091ED042091C6
:100A0000EE043091EF04601B710B820B930B00918D
:100A1000E8041091E9042091EA043091EB04601796
:100A2000710782079307F8F28FEF9FEF1F910F91E5
:100A3000089590E080E0089560E08CE00E940C0250
:100A400068EE73E080E090E00E94B90261E08CE023
:100A50000C940C0260E08CE00C940C02CF93C82F35
:100A600080912604811104C080912F0460E08111DF
:100A70006C2F84E00E940C0280912504811108C033
:100A800080911404811109C080912F04811105C047
:100A900060E08DE0CF910C940C026C2FFACF809126
:100AA0002604882331F081E08093250480E00C94B3
:100AB0002E050895CF92DF92EF92FF920F931F932E
:100AC000CF93DF93EC016A017B010E94EC02088165
:100AD00019812A813B81601771078207930728F5E6
:100AE0000E94EC02AB01BC0188819981AA81BB8183
:100AF00080959095A095B095840F951FA61FB71F60
:100B0000C816D906EA06FB0680F40E94EC02688348
:100B100079838A839B8381E0DF91CF911F910F912D
:100B2000FF90EF90DF90CF9008950E94EC02088133
:100B300019812A813B81601B710B820B930BC616B6
:100B4000D706E806F90608F380E0E6CFAF92BF9239
:100B5000CF92DF92EF92FF920F931F93CF93DF9389
:100B6000DC01CD90DC901197C114D10439F01496BA
:100B7000CD91DC918C017601209761F4DF91CF91CA
:100B80001F910F91FF90EF90DF90CF90BF90AF90AB
:100B9000089575015701BFEFAB1ABB0AF7018081B9
:100BA000082E000C990B0E94BC1B892B91F72197F2
:100BB000CC0DDD1D8881082E000C990B0E94BC1BFA
:100BC000892B29F0CE15DF0510F02197F3CFAE0168
:100BD0004F5F5F4F4E195F09D80115965C934E9396
:100BE0001497CE14DF0420F4B701C6010E94062139
:100BF000D801ED91FC91119714968D919C91E80F7D
:100C0000F91F1082BBCFFB0101900020E9F731975B
:100C1000AF01461B570BDC01ED91FC910280F38183
:100C2000E02D09948F929F92AF92BF920F931F93E2
:100C3000CF93DF93CDB7DEB7A1970FB6F894DEBFA1
:100C40000FBECDBF19A2423008F44AE08E010F5DFD
:100C50001F4F842E912CB12CA12CA50194010E9430
:100C6000F51EE62FB901CA01EA3004F5E05DD801AE
:100C7000EE938D01232B242B252B79F790E080E038
:100C8000109729F0BD0181E494E00E940306A1962B
:100C90000FB6F894DEBF0FBECDBFDF91CF911F918D
:100CA0000F91BF90AF909F908F900895E95CDFCF38
:100CB000CF93DF93BC0181E494E00E940306EC0132
:100CC0006BE471E081E494E00E9403068C0F9D1FA9
:100CD000DF91CF9108950F931F93CF93DF93EC0192
:100CE000FB014481558160817181E881F981028035
:100CF000F381E02D09958C016BE471E0CE010E9437
:100D00000306800F911FDF91CF911F910F910895DE
:100D10000F931F93CF93DF93EC010E940A038C0182
:100D20006BE471E0CE010E940306800F911FDF91FA
:100D3000CF911F910F910895CF93DF93FC012481F0
:100D400035814217530788F4C081D181FB0160814E
:100D50007181CE01840F951F0E942121009729F0F7
:100D60008C1B9D0BDF91CF9108958FEF9FEFFACFF2
:100D700050E040E00C949C06CF93DF93FC0124816B
:100D800035814217530788F4C081D181062E000CAB
:100D9000770BCE01840F951F0E940F21009729F039
:100DA0008C1B9D0BDF91CF9108958FEF9FEFFACFB2
:100DB0000F931F93CF93DF938C01EB01FC01808194
:100DC00091810097E1F06881798161157105A9F041
:100DD000428153812C813D814217530770F00E945C
:100DE0001A218C819D81F801958384831D821C8248
:100DF000DF91CF911F910F9108950E94C01F8881AC
:100E00009981F801918380838A819B819383828376
:100E10008C819D8195838483198218821B821A821A
:100E2000E5CFCF93DF93EC0188819981009711F092
:100E30000E94C01F198218821D821C821B821A8286
:100E4000DF91CF910895FC0180819181009711F08D
:100E50000C94C01F08950F931F93CF93DF93EC0161
:100E600088819981009759F02A813B81261737079D
:100E700030F081E0DF91CF911F910F9108958B01A8
:100E80006F5F7F4F0E944920009759F099838883B4
:100E90001B830A832C813D81232B59F7FC0110828F
:100EA000E8CF80E0E7CFEF92FF920F931F93CF93AD
:100EB000DF936115710541F480E0DF91CF911F91BF
:100EC0000F91FF90EF90089541155105B1F07B010E
:100ED000EC010C811D81040F151FB8010E942B0726
:100EE000882351F3288139818C819D81B701820F3C
:100EF000931F0E941A211D830C8381E0DECFEF92A5
:100F0000FF920F931F93CF93DF93EC017B018A0134
:100F1000BA010E942B0781110BC0CE010E9411075C
:100F2000CE01DF91CF911F910F91FF90EF90089527
:100F30001D830C83B701888199810E941A21F0CF0B
:100F4000FB01DC0111961C921E9213961C921E92BC
:100F5000129715961C921E9214978617970749F0C0
:100F6000608171816115710521F0448155810C9476
:100F70007F070895FC01118210821382128215826C
:100F80001482FB0101900020E9F73197AF01461B65
:100F9000570B0C947F070F931F93CF93DF9300D0D1
:100FA000CDB7DEB78C016DE471E00E94BA070E94F4
:100FB000E70497FD0BC089831A8241E050E0BE012F
:100FC0006F5F7F4FC8010E945307F1CFC8010F9098
:100FD0000F90DF91CF911F910F910895AF92BF9223
:100FE000CF92DF92EF92FF920F931F93CF93DF93F5
:100FF0007C016B015A0189012417350720F48B2DE0
:101000005901042F182F6DE471E0C7010E94BA073F
:10101000D6011496CD91DC91AC16BD0620F50C17C7
:101020001D0708F4E801D601ED91FC911197EC0F32
:10103000FD1F108110826D917C916A0D7B1D6115E1
:101040007105E9F0FB0101900020E9F73197AF014C
:10105000461B570BC7010E947F07F60180819181D3
:10106000C80FD91F1883C701DF91CF911F910F912E
:10107000FF90EF90DF90CF90BF90AF900895C701A1
:101080000E941107EACFEF92FF920F931F93CF9325
:10109000DF93EC018B01198218821B821A821D8258
:1010A0001C82CB010E94C4197C01BC01CE010E94AC
:1010B0002B07811109C0CE01DF91CF911F910F91B4
:1010C000FF90EF900C941107FD82EC82B8018881AB
:1010D0009981DF91CF911F910F91FF90EF900C9428
:1010E000BD19AF92BF92CF92DF92EF92FF920F9312
:1010F0001F93CF93DF93CDB7DEB7C455D1090FB699
:10110000F894DEBF0FBECDBF5C016DE471E0CE018F
:10111000815B9F4F0E94BA0702E911E084EE94E0E0
:101120000E94B004892B69F50150110919F562E696
:1011300071E081E494E00E9488066DE471E0C501ED
:101140000E94BA07CE01815B9F4F0E942307C50111
:10115000CC5ADF4F0FB6F894DEBF0FBECDBFDF9184
:10116000CF911F910F91FF90EF90DF90CF90BF90A4
:10117000AF9008956AEF70E080E090E00E94B902BD
:10118000CDCFCE0101960E94CB07BE016F5F7F4F8E
:10119000CE01815B9F4F0E94D806CE0101960E942E
:1011A0002307BE01615B7F4F81E494E00E946B06E0
:1011B0006FE571E0CE01875B9F4F0E944308BE013F
:1011C000675B7F4FCE01815B9F4F0E94B80610E0A6
:1011D000019609F002C1BE01615B7F4FCE018D5BBC
:1011E0009F4F0E94A00769E571E0CE0101960E9421
:1011F0004308BE016F5F7F4FCE018D5B9F4F0E9402
:10120000B80697FFFFC064E571E0CE0107960E9423
:101210004308BE01695F7F4FCE018D5B9F4F0E94E7
:10122000B80697FFFAC060E571E0CE010D960E9406
:101230004308BE01635F7F4FCE018D5B9F4F0E94CD
:10124000B80697FFF1C06CE471E0CE0143960E94AE
:101250004308BE016D5E7F4FCE018D5B9F4F0E94A4
:10126000B80697FFE8C067E471E0CE0149960E9496
:101270004308BE01675E7F4FCE018D5B9F4F0E948A
:10128000B80697FFDEC063E471E0CE014F960E947E
:101290004308BE01615E7F4FCE018D5B9F4F0E9470
:1012A000B80697FFD3C06EE371E0CE0185960E9429
:1012B0004308BE016B5D7F4FCE018D5B9F4F0E9447
:1012C000B80697FFC7C069E371E0CE018B960E9414
:1012D0004308BE01655D7F4FCE018D5B9F4F0E942D
:1012E000B80611E097FF41C065E371E0CE01C196F9
:1012F0000E944308BE016F5C7F4FCE018D5B9F4F04
:101300000E94B80611E097FF2CC060E371E0CE01A7
:10131000C7960E944308BE01695C7F4FCE018D5B7A
:101320009F4F0E94B80611E097FF17C069E271E075
:10133000CE01CD960E944308BE01635C7F4FCE0173
:101340008D5B9F4F0E94B8069095192F111F112792
:10135000111FCE01CD960E942307CE01C7960E9491
:101360002307CE01C1960E942307CE018B960E94CF
:10137000230701E0FF24F394EE24E394DD24D394C7
:10138000CC24C394CE0185960E942307CC2021F063
:10139000CE014F960E942307DD2021F0CE01499611
:1013A0000E942307EE2021F0CE0143960E942307DE
:1013B000FF2021F0CE010D960E942307002321F08B
:1013C000CE0107960E942307CE0101960E942307B3
:1013D000CE018D5B9F4F0E942307CE01875B9F4FFD
:1013E0000E942307111198CEF501118210821382F9
:1013F000128215821482BE01615B7F4FC5010E947B
:10140000D806A0CE80E0C12CD12CE12CF12C00E03C
:1014100011E0882309F4BACFB5CF80E0C12CD12CDC
:10142000E12CF12C01E0F4CF80E0C12CD12CE12C97
:10143000FF24F394F7CF80E0C12CD12CEE24E39469
:10144000F7CF80E0C12CDD24D394F8CF80E0CC240A
:10145000C394F9CF81E0FBCF0F931F93CF93DF931A
:101460008C01EB018C819D81892BA9F0E881F981A8
:101470008081882381F064E773E081E494E00E9436
:101480008806BE0181E494E00E946B06BE0184EEF2
:1014900094E00E946B06C8010E947108C801DF91A8
:1014A000CF911F910F9108950F931F93CF93DF93C7
:1014B00000D000D000D0CDB7DEB7FC01248135814B
:1014C00010E0232BA9F08C0163E271E0CE010196BC
:1014D0000E944308BE016F5F7F4FC8010E94B8069B
:1014E00011E0019609F010E0CE0101960E94230759
:1014F000812F26960FB6F894DEBF0FBECDBFDF91C9
:10150000CF911F910F910895CF92DF92EF92FF92AA
:101510000F931F93CF93DF93CDB7DEB768970FB6C6
:10152000F894DEBF0FBECDBF7C018B016EE471E08D
:10153000CE0101960E94BA07F8014481558160816D
:101540007181CE0101960E945307811104C0CE0122
:1015500001960E94110741E050E066E571E0CE017E
:1015600001960E945307811104C0CE0101960E948A
:101570001107BE016F5F7F4FCE010D960E94A0073D
:10158000CE0101960E942307BE01635F7F4F84EE68
:1015900094E00E946B06BE01635F7F4F81E494E09C
:1015A0000E946B0604E110E084EE94E00E94B00417
:1015B000892B09F472C0CE0101960E94CB0750E03E
:1015C00040E06EE3CE0101960E94BC0697FD2EC05E
:1015D000CE0101960E942307F70144815581608165
:1015E000718184EE94E00E942E0364EF71E080E04C
:1015F00090E00E94B9026AE184EE94E00E945404F3
:101600006BED70E081E494E00E9488060AE710E048
:1016100084EE94E00E94B004892B09F056C001507A
:10162000110909F04BC069EA70E043C065ED70E054
:10163000CE0107960E944308BE01695F7F4FCE012D
:1016400001960E94B8066C01CE0107960E942307FE
:10165000D7FC1FC063EC70E081E494E00E94880630
:10166000CE0101960E94230710E0CE010D960E9444
:101670002307812F68960FB6F894DEBF0FBECDBF4B
:10168000DF91CF911F910F91FF90EF90DF90CF905E
:101690000895CE0101960E9423076AEF70E080E072
:1016A00090E00E94B9020150110909F07DCF65EB6D
:1016B00070E081E494E00E948806D6CF6AEF70E083
:1016C00080E090E00E94B902A3CFCE0143960E9431
:1016D000CB07BE016D5E7F4F81E494E00E946B06F4
:1016E00062EA70E0CE0107960E944308BE01695F7E
:1016F0007F4FCE0143960E94B80611E097FF16C0B7
:101700006FE970E0CE0101960E944308BE016F5F51
:101710007F4FCE0143960E94B8069095192F111F56
:101720001127111FCE0101960E942307CE010796B3
:101730000E942307CE0143960E94230796CF0F9362
:101740001F93CF93DF93CDB7DEB762970FB6F894B0
:10175000DEBF0FBECDBF65E970E0CE0101960E94ED
:101760004308BE016F5F7F4FCE010D960E942C0A89
:10177000CE0101960E94230762E970E0CE01019636
:101780000E944308BE016F5F7F4FCE010D960E94FD
:10179000B8068C01CE0101960E9423070F3F1F4F10
:1017A000B9F466E770E081E494E00E94880610E0F6
:1017B000CE010D960E942307812F62960FB6F894F2
:1017C000DEBF0FBECDBFDF91CF911F910F91089566
:1017D00064EF71E080E090E00E94B90268E670E09A
:1017E000CE0101960E944308BE016F5F7F4FCE017C
:1017F00007960E942C0ACE0107960E942307CE016D
:1018000001960E94230764EF71E080E090E00E945F
:10181000B90211E0CDCF0F931F93CF93DF93CDB7D4
:10182000DEB72C970FB6F894DEBF0FBECDBF84EEA7
:1018300094E00E94B004892B29F084EE94E00E9489
:10184000C604F5CF6AE171E081E494E00E94880665
:1018500063E171E081E494E00E9488066CE071E04D
:1018600084EE94E00E94880668EB7BE080E090E0E4
:101870000E94B9026DE471E0CE0107960E94BA079A
:1018800084EE94E00E94B004892B89F0CE01019689
:101890000E94CB074D815E8169817A81CE010796D6
:1018A0000E945307CE0101960E942307E9CFBE0193
:1018B000695F7F4F81E494E00E946B0666E071E00F
:1018C000CE0101960E944308BE016F5F7F4FCE019B
:1018D00007960E94B8068C01CE0101960E9423074C
:1018E0000F3F1007D1F02B853C85A8014A5F5F4F61
:1018F000BE01695F7F4FCE0101960E94EE0789818C
:101900009A810097E1F00E9496198B01CE01019611
:101910000E9423070336110511F410E000E0CE0108
:1019200007960E942307C8012C960FB6F894DEBFD5
:101930000FBECDBFDF91CF911F910F91089560E051
:1019400070E0CB01E2CF1F920F920FB60F921124DD
:101950002F933F938F939F93AF93BF9380913904BD
:1019600090913A04A0913B04B0913C04309138042A
:1019700023E0230F2D3768F126E8230F0296A11DDF
:10198000B11D209338048093390490933A04A093B6
:101990003B04B0933C0480913D0490913E04A0919F
:1019A0003F04B09140040196A11DB11D80933D04F8
:1019B00090933E04A0933F04B0934004BF91AF9135
:1019C0009F918F913F912F910F900FBE0F901F907D
:1019D00018950196A11DB11DD4CF1F920F920FB67D
:1019E0000F9211242F933F934F935F936F937F93A5
:1019F0008F939F93AF93BF93EF93FF93E091060173
:101A0000F09107010995FF91EF91BF91AF919F91DF
:101A10008F917F916F915F914F913F912F910F9097
:101A20000FBE0F901F9018951F920F920FB60F9236
:101A300011242F933F934F935F936F937F938F93D3
:101A40009F93AF93BF93EF93FF93E0910401F091C5
:101A500005010995FF91EF91BF91AF919F918F91F2
:101A60007F916F915F914F913F912F910F900FBE9A
:101A70000F901F9018951F920F920FB60F9211247E
:101A80002F933F934F935F936F937F938F939F9386
:101A9000AF93BF93EF93FF9381E494E00E94AC0374
:101AA000FF91EF91BF91AF919F918F917F916F9136
:101AB0005F914F913F912F910F900FBE0F901F900C
:101AC00018951F920F920FB60F9211242F938F9398
:101AD0009F93EF93FF93E0915104F0915204808122
:101AE000E0915704F091580482FD1BC090818091D1
:101AF0005A048F5F8F7320915B04821741F0E0914D
:101B00005A04F0E0EF5BFB4F958F80935A04FF91EE
:101B1000EF919F918F912F910F900FBE0F901F907B
:101B200018958081F4CF1F920F920FB60F92112457
:101B30002F933F934F935F936F937F938F939F93D5
:101B4000AF93BF93EF93FF93E0911004F0911104D2
:101B5000309749F0A685B7858585968D91FF14C08D
:101B60009C918923A1F4FF91EF91BF91AF919F9137
:101B70008F917F916F915F914F913F912F910F9036
:101B80000FBE0F901F9018959C91892361F7A38930
:101B9000B4899C918589809589238C9386899789BE
:101BA0000197F1F7608D718DA685B785558538E071
:101BB00020E0CB010197F1F7822F90E09595879572
:101BC000282F4C91452309F02068315091F7868DDC
:101BD00081FD209580910F0490E001968F739927E5
:101BE00030910E04381799F0A0910F04B0E0A25381
:101BF000BC4F2C9380930F04828D938D0197F1F746
:101C0000A389B4898C919589892B8C93ACCF868DCF
:101C10008160868FF1CF1F920F920FB60F92112421
:101C20002F933F934F935F936F937F938F939F93E4
:101C3000AF93BF93EF93FF9380910801882329F01E
:101C400080912F04882309F44FC0809126048111CC
:101C500005C080912F04882309F4B0C08091CC0383
:101C60009091CD0341970CF458C088EE93E0909387
:101C700001018093000180E00E942E051092CD03A7
:101C80001092CC0380912F04882399F08091CA038D
:101C90009091CB0301969093CB038093CA034F9707
:101CA00044F010922F04109226041092CB0310924D
:101CB000CA03A0910001B09101012FE030E00E9421
:101CC000171FDC01CB010197A109B109009721E0A1
:101CD000A207B10520F08FEF9FEFA0E0B0E0909356
:101CE000030180930201A895809102019091030164
:101CF0009093890080938800FF91EF91BF91AF91FD
:101D00009F918F917F916F915F914F913F912F9113
:101D10000F900FBE0F901F9018958091CC0390915B
:101D2000CD030597F1F08091CC039091CD030797F7
:101D3000C1F08091CC039091CD03099791F08091EF
:101D4000CC039091CD030B9761F08091CC039091DF
:101D5000CD030697C9F481E00E942E0580E991E049
:101D600005C080E00E942E0588EC90E09093010170
:101D7000809300018091CC039091CD0301969093C4
:101D8000CD038093CC0395CF8091CC039091CD036C
:101D9000089709F38091CC039091CD030A97D9F26B
:101DA0008091CC039091CD0380FD02C081E001C001
:101DB00080E00E942E0584E690E0D8CF80E00E946B
:101DC0002E051092CD031092CC0373CFCF92DF92E9
:101DD000EF92FF92109244041092430498EEC92EA1
:101DE00093E0D92EE12CF12CC0924504D092460408
:101DF000E0924704F09248048BE291E09093420411
:101E00008093410485EC90E090934E0480934D04C0
:101E100084EC90E09093500480934F0480EC90E029
:101E2000909352048093510481EC90E09093540479
:101E30008093530482EC90E0909356048093550471
:101E400086EC90E0909358048093570410925A04C3
:101E500010925B0410925C0410925D0468E571E0DE
:101E600083E095E00E94BA071092E7041092E6041E
:101E7000C092E804D092E904E092EA04F092EB0404
:101E80008DE391E09093E5048093E4041092FB04C9
:101E90001092FA041092FD041092FC041092FF04B8
:101EA0001092FE0410920105109200056091020547
:101EB0006E7F6D7F609302056695617081E0682793
:101EC0008BE00E940C0261E08BE00E945802E3EB81
:101ED000F3E0E491E093F404ECE9F3E0E491F0E062
:101EE000EE0FFF1FE957FC4F859194919093F604F4
:101EF0008093F50460E08AE00E9458028091020518
:101F000081FD04C061E08AE00E940C028AE08093B7
:101F1000F004E2EBF3E0E491E093F104EBE9F3E0A9
:101F2000E491F0E0EE0FFF1FE358FC4F8591949190
:101F30009093F3048093F2046BE571E08EED94E0EE
:101F4000FF90EF90DF90CF900C94BA07CF93DF9380
:101F5000CDB7DEB7C251D1400FB6F894DEBF0FBE89
:101F6000CDBF789484B5836084BD85B5836085BD1D
:101F700080916E00816080936E0012E0109381006A
:101F800080918100816080938100809180008160D8
:101F9000809380008091B10084608093B100809133
:101FA000B00081608093B00087E880937A0010923F
:101FB000C10081E08093080161E08DE00E94580239
:101FC00061E084E00E94580261E085E00E945802CE
:101FD00062E082E00E94580262E083E00E945802C0
:101FE00061E08CE00E94580260E080E10E945802AB
:101FF00060E08DE00E940C028FE495E09093050173
:1020000080930401809169008C7F826080936900D5
:10201000E89A88EF92E090930701809306018091FF
:102020006900837F886080936900E99A10920901B2
:10203000E0915104F09152041083E0914D04F0912D
:102040004E041082E0914F04F09150048FEC808395
:1020500010925904E0915504F091560486E0808373
:10206000E0915304F0915404808188698083E09169
:102070005304F091540480818F7D80831092FF047B
:102080001092FE041092FD041092FC041092FB04C6
:102090001092FA048DEC90E0909301058093000576
:1020A0008091F004873108F04BC025E530E0309393
:1020B000FB042093FA042BEC30E03093FD042093D2
:1020C000FC0420E930E03093FF042093FE042091CB
:1020D000680094E0883054F091E08E303CF092E05B
:1020E000843124F091E0863109F490E0922B9093B2
:1020F00068002DE630E0883074F08E300CF4D3C1E7
:1021000084313CF086310CF4CEC130E020E08631E1
:1021100011F42CE630E03093F8042093F704883073
:102120000CF0C4C191E001C0990F8A95EAF7892F9C
:102130008093F90480910005909101050197F1F7D2
:102140008091FE049091FF04892B49F1E0911004E5
:10215000F091110424E0E43EF20709F1309739F0E0
:10216000A389B4899C918589809589238C938091DA
:1021700002058E7F8093020510920F0410920E04C8
:1021800084EE94E09093110480931004E091F7049E
:10219000F091F80480819091F904892B808314B721
:1021A00014BE0FB6F894A895809160008861809362
:1021B0006000109260000FBE6BE671E081E494E075
:1021C0000E940306612F70E090E080E042E00E94F0
:1021D00012068FE991E00E94580610FF04C082EABF
:1021E00091E00E94580611FF04C089ED91E00E9421
:1021F000580612FF04C085E192E00E9458068FE461
:1022000092E013FD04C0111104C087E992E00E941E
:1022100058066BE471E081E494E00E940306F894B0
:10222000109280001092810010928500109284001C
:1022300089E196E0909389008093880080918100E5
:102240008860809381008091810085608093810007
:1022500080916F00826080936F00789488E199E2AA
:102260000FB6F894A895809360000FBE909360001D
:10227000109208018CEE92E00E945806CE018D5417
:102280009F4F6C01FE01EF57FF4F7F018E010F5FE3
:102290001F4F6EE1262E61E0362E40E050E0BA017D
:1022A00084E394E00E945A05882309F4C8C054E6E8
:1022B000A52EB12C412C512C320180910901F0E462
:1022C0008F9FC0011124826080937C0080917A00EE
:1022D000806480937A0080917A0086FDFCCF6091C3
:1022E000780070917900072E000C880B990B0E94E2
:1022F000701C9B01AC01C301B2010E94D71D2B01D0
:102300003C016AE070E080E090E00E94B90221E0C8
:10231000A21AB10891F620E030E048EC52E4C30183
:10232000B2010E94431E20E030E040E85AE30E94E0
:10233000CF1C20E030E04AE754E40E94CF1C4B0160
:102340005C0120E030E040EA51E40E94691C87FF14
:1023500003C0812C912C540180921804909219048E
:10236000A0921A04B0921B04A5019401C501B40106
:102370000E94F01E62EF72E081111BC02401350142
:10238000E89477F82FEF3FEF4FE75FE7C301B20123
:102390000E94F01E811198C02FEF3FEF4FE75FE7DB
:1023A000C301B2010E94691C18160CF08DC066EFC3
:1023B00072E081E494E00E9403066BE471E081E442
:1023C00094E00E94030680912F04811138C080910F
:1023D000260481110DC120E030E048E453E4C5013A
:1023E000B4010E94EB1E87FDFEC080911504909100
:1023F00016040196909316048093150405971CF01B
:1024000081E08093260480911404811103C120E0AF
:1024100030E046E953E4C501B4010E94EB1E87FD9C
:10242000F4C08091120490911304019690931304C8
:102430008093120405971CF081E08093140440ED12
:1024400057E060E070E080E394E00E945A05882342
:1024500009F434C190902F0480911C04811103C0B1
:10246000992009F42BC161E08CE00E940C0268EB1A
:102470007BE080E090E00E94B90245E0A42EB12C00
:102480000E940B0C181619060CF427C668EE73E0B0
:1024900080E090E00E94B90281E0A81AB10881F7BB
:1024A0000E942A050BC12BE630E035CE8E3014F4A5
:1024B000885038CE863114F48E5034CE863111F0E7
:1024C00080E036CE80E434CE2FEF3FEF4FE75FE47D
:1024D000C501B4010E94EB1E18161CF46AEF72E0ED
:1024E00068CF2FEF3FEF4FE75FECC501B4010E94CB
:1024F000691C87FDF3CF20E030E0A901C501B401DC
:102500000E94691C87FF6CC06DE281E494E00E9428
:10251000CE03C501B40190582AE037ED43EA5BE3EE
:102520000E94D71D2B013C010E94BC1EC15FDE4FE3
:10253000688379838A839B83CF50D1400E946E1C2D
:102540009B01AC01C301B2010E94D61D2B013C01CD
:102550004AE0C15FDE4F688179818A819B81CF50DB
:10256000D1400E9412066EE281E494E00E94CE0304
:1025700020E030E040E251E4C301B2010E94CF1CF0
:10258000C15FDE4F688379838A839B83CF50D140BC
:102590000E94BC1E2B01712C612C4AE0C301B201C8
:1025A0000E941206C301B2010E946E1C9B01AC0185
:1025B000C15FDE4F688179818A819B81CF50D14094
:1025C0000E94D61D20E030E040E251E40E94CF1C82
:1025D0000E94BC1E90E080E04AE00E941206EDCE10
:1025E000C501B40199CF10921604109215040BCFB7
:1025F00020E030E046E153E4C501B4010E94691CCB
:1026000087FF01CF10922604FECE10921304109281
:10261000120415CF20E030E04AE753E4C501B401CD
:102620000E94691C87FF0BCF1092140408CF7F9380
:102630006F938EEF92E09F938F931F9282E38F931D
:10264000DF92CF920E943B210FB6F894DEBF0FBEFF
:10265000CDBFB601CE01875F9E4F0E94BA07809121
:1026600017048111EFC00E949F0BB12CA12C60E1D7
:1026700071E0C7010E94BA07BE01675F7E4FC801C3
:102680000E94A007B701C8010E94840A882EC801D1
:102690000E942307C7010E942307882009F494C0E1
:1026A00081E080931704809117048111C5C00E94B6
:1026B0002A05CE01875F9E4F0E94230740E85EEE09
:1026C00066E370E08BE294E00E945A05882359F19A
:1026D00080911C04811127C080912604811123C0A0
:1026E00080912F0481111FC061E08CE00E940C02D8
:1026F00068EB7BE080E090E00E94B90285E0A82EC4
:10270000B12C0E940B0C181619060CF4F7C468EED5
:1027100073E080E090E00E94B902F1E0AF1AB108E6
:1027200081F70E942A0548E853E160E070E087E203
:1027300094E00E945A05882391F08091260481112B
:102740000EC061E085E00E940C0262E370E080E070
:1027500090E00E94B90260E085E00E940C02809146
:102760002604811102C01092250440EA5FE060E077
:1027700070E081E294E00E945A05882309F0A89550
:1027800040E85EEE66E370E08DE194E00E945A0559
:10279000882369F080912604811109C080912F045B
:1027A000811105C00E941C05F0E0E0E0099580E081
:1027B00090E0892B09F471CD0E949803882309F4D5
:1027C00065CD0E94000062CD60EC72E081E494E08F
:1027D0000E948806A114B10489F460ED77E080E0DE
:1027E00090E00E94B90284EE94E00E94B004892B2C
:1027F000C1F084EE94E00E94C604F5CF0E941C054F
:1028000068E873E180E090E00E94B90284EE94E011
:102810000E94B004892B29F084EE94E00E94C60443
:10282000F5CF0E949F0B9FEFA91AB90AE3E0AE16FD
:10283000B10409F01CCF37CF60ED77E080E090E085
:102840000E94B90267E272E0C7010E944308B70123
:10285000C8010E942C0AC8010E94540AB82EC8015F
:102860000E942307C7010E942307BB2009F4F1C07F
:102870003F922F9286E393E09F938F931F9282E380
:102880008F93FF92EF920E943B21B701C8010E94F3
:10289000BA07B801CE018B519F4F0E942C0ACE017E
:1028A0008B519F4F0E94540AB82ECE018B519F4FDF
:1028B0000E942307C8010E9423070FB6F894DEBFC9
:1028C0000FBECDBFBB2009F4C4C06EE172E081E44D
:1028D00094E00E94880661E172E081E494E00E9445
:1028E000880664E072E084EE94E00E9488066DE45D
:1028F00071E0CE018F509F4F0E94BA0738E7A32E98
:10290000B12C6AEF70E080E090E00E94B90284EEA2
:1029100094E00E94B004892B09F4C8C0C8010E9449
:10292000CB07B801CE018F509F4F0E94D806C80137
:102930000E942307BE016F507F4F81E494E00E9404
:102940006B06BE016F507F4FC8010E94A007C801EF
:102950000E94540AB82EC8010E942307BB2009F424
:1029600071C068EF71E0C8010E944308B801CE0150
:102970008B519F4F0E942C0ACE018B519F4F0E947A
:102980002307C8010E9423076CEE71E0C8010E9472
:102990004308B801CE018B519F4F0E942C0ACE01F3
:1029A0008B519F4F0E94540AB82ECE018B519F4FDE
:1029B0000E942307C8010E9423076FED71E0BB202E
:1029C00081F16BEC71E0C8010E944308B801CE01AF
:1029D0008B519F4F0E942C0ACE018B519F4F0E941A
:1029E000540AB82ECE018B519F4F0E942307C80175
:1029F0000E942307B11060C06FEB71E0C8010E9414
:102A00004308B801CE018B519F4F0E942C0ACE0182
:102A10008B519F4F0E942307C8010E94230762EB3E
:102A200071E0C8010E944308B801CE018B519F4F4D
:102A30000E942C0ACE018B519F4F0E942307C80190
:102A40000E942307CE018F509F4F0E942307B11091
:102A5000B8C06DE471E0CE018D5F9E4F0E94BA0751
:102A6000BE016D5F7E4F81E494E00E946B06C95FFA
:102A7000DE4F88819981C750D140892B49F0CD5FC5
:102A8000DE4FE881F981C350D1408081811160C15E
:102A900064EA72E081E494E00E9488060E942A05BC
:102AA000CE018D5F9E4F0E94230703CE91E0A91AAD
:102AB000B10809F026CF45CF23E3B22E911002C012
:102AC00092E3B92E609118047091190480911A0450
:102AD00090911B040E94B51E7F936F931F92BF922B
:102AE000809104058F93809103058F938FE18F93DD
:102AF00080E98F938091DF048F938091DE048F9320
:102B00008EE493E09F938F931F9280E88F931F939F
:102B10000F930E943B21B801CE018B519F4F0E9421
:102B2000BA07BE016B517F4FCE0185519F4F0E9466
:102B30002C0ACE0185519F4F0E94540AB82ECE0117
:102B400085519F4F0E942307CE018B519F4F0E94BA
:102B500023070FB6F894DEBF0FBECDBFB11072CF02
:102B600066EA71E0CE018B519F4F0E944308BE017F
:102B70006B517F4FCE0185519F4F0E942C0ACE0191
:102B800085519F4F0E942307CE018B519F4F0E947A
:102B9000230769E971E0CE018B519F4F0E944308E2
:102BA000BE016B517F4FCE0185519F4F0E942C0A71
:102BB000CE0185519F4F0E942307CE018B519F4F1D
:102BC0003FCF6CE872E0C8010E944308B801CE0113
:102BD00085519F4F0E942C0AC8010E94230769E873
:102BE00072E0C8010E944308B801CE0185519F4F91
:102BF0000E94B806B12C97FD13C063E872E0C701CC
:102C00000E944308B701CE0185519F4F0E94B8062C
:102C1000BB24B394019609F0B12CC7010E9423078D
:102C2000C8010E942307BB2009F46CC0C8010E94A0
:102C3000710864E973E0C7010E94BA07B701C801CF
:102C40000E94B8065C01C7010E942307C8010E94C8
:102C50002307B7FC57C064EF71E080E090E00E946A
:102C6000B90267E772E0C8010E944308B801CE01CB
:102C70008B519F4F0E942C0AC8010E9423076BE6CC
:102C800072E0C7010E944308B701C8010E942C0AE4
:102C9000C8010E942307C7010E9423076EE572E066
:102CA000C7010E944308B701C8010E942C0AC8014D
:102CB0000E942307C7010E942307CD5FDE4F1982C0
:102CC0001882C350D140CB5FDE4F19821882C550A5
:102CD000D140C95FDE4F19821882C750D140BE0172
:102CE0006B517F4FCE018D5F9E4F0E94D806CE0163
:102CF0008B519F4F0E942307CE0185519F4F0E9409
:102D00002307AECE62E572E0C7010E944308B70117
:102D1000C8010E942C0AC8010E942307C7010E9413
:102D2000230765E472E0C7010E944308B701C801A8
:102D30000E942C0AC8010E942307C7010E94230792
:102D40006DE471E0CE018D5F9E4F0E94BA07D4CF33
:102D5000BE016D5F7E4FC7010E94A0076EE871E063
:102D6000C8010E944308B801C7010E94B8065C016F
:102D7000C8010E9423072FEFA216B20609F05FC018
:102D80006DE471E0CE0183509F4F0E94BA07C701E6
:102D90000E942307CF5FDE4F88819981C150D140C7
:102DA000892B09F492C1C350DF4FE881F981CD5FCF
:102DB000D040309709F489C18081813309F085C101
:102DC0006CE972E081E494E00E94880650E040E003
:102DD0006CE2CE0183509F4F0E94BC068F3F980744
:102DE00009F46AC1CF5FDE4F28813981C150D140DB
:102DF000AC014F5F5F4FBE0163507F4FCE018950E2
:102E00009F4F0E94EE07BE0169507F4FCE018F5049
:102E10009F4F0E94A007BE01675F7E4FCE01855184
:102E20009F4F0E94A00784EE94E00E94B004892B7B
:102E300009F45EC084EE94E00E94C604F4CFA501BC
:102E40006AE0C7010E94BC068F3F980709F498CF3B
:102E50005C01FFEFAF1ABF0A69E871E0C8010E9488
:102E60004308A501B801C7010E949C064C01C80196
:102E70000E9423072FEF82169206A9F465E871E0FD
:102E8000C8010E944308A501B801C7010E949C0621
:102E90004C01C8010E9423078FEF8816980619F489
:102EA000F701848095809401A501B701C8010E94B3
:102EB000EE07C8010E94A605C350DF4F1982188291
:102EC000CD5FD040C150DF4F19821882CF5FD04014
:102ED000CF5FDE4F19821882C150D140B801CE01B8
:102EE00083509F4F0E94D806C8010E9423074FCFEE
:102EF0000E949F0BB12CA12CCB50DF4F8881998170
:102F0000C55FD040A816B9060CF0C7C0A5016CE299
:102F1000CE018F509F4F0E94BC064C016DE471E0C2
:102F2000CE018B519F4F0E94BA072FEF8216920657
:102F300009F066C0CB50DF4F28813981C55FD04092
:102F4000A501BE016F507F4FC8010E94EE07B80176
:102F5000CE018B519F4F0E94D806C8010E942307C3
:102F6000CB50DF4FA880B980C55FD040CE018B51D8
:102F70009F4F0E94A605C751DF4F88819981C95E86
:102F8000D040892BB9F1912C812CBE016B517F4F20
:102F9000C8010E94A007BE0165517F4FC7010E9472
:102FA000A007B801C7010E94840A782EC7010E94B9
:102FB0002307C8010E9423077720C1F168E771E069
:102FC00081E494E00E940A03BE016B517F4F81E4CB
:102FD00094E00E946B069FEF891A990AE3E08E162F
:102FE000910411F0772089F260ED77E080E090E0C5
:102FF0000E94B902CE018B519F4F0E9423077CCFC4
:103000009401A501BE016F507F4FC8010E94EE07D9
:10301000B801CE018B519F4F0E94D806C8010E9473
:10302000230754018FEFA81AB80AA0CF6AE671E00F
:1030300081E494E00E940A03BE016B517F4F81E45A
:1030400094E00E946B068114910489F460ED77E0AE
:1030500080E090E00E94B90284EE94E00E94B00407
:10306000892BC1F084EE94E00E94C604F5CF0E9443
:103070001C0568E873E180E090E00E94B90284EEEC
:1030800094E00E94B004892B29F084EE94E00E9421
:10309000C604F5CF0E949F0B9ECFCE0185519F4F56
:1030A0000E942307CE018F509F4F0E942307CE011D
:1030B00089509F4F0E94230710921C0410921704FE
:1030C00080912F04811110922F040E942A05CE01B5
:1030D00083509F4F0E942307E3CC609118047091A6
:1030E000190480911A0490911B040E94B51E91103E
:1030F0009ECA7F936F938BE193E09DCA65E373E073
:10310000C8010E944308B801C7010E942C0AC701E8
:103110000E94540AB82EC7010E942307C8010E94CA
:103120002307BB20D9F13F922F9286E393E09F9330
:103130008F931F9282E38F931F930F930E943B21E3
:10314000B801C7010E94BA07B701C6010E942C0A44
:10315000C6010E94540AB82EC6010E942307C70167
:103160000E9423070FB6F894DEBF0FBECDBFBB2071
:10317000A9F068E273E0C8010E944308B801C701E2
:103180000E942C0AC7010E94540AB82EC7010E944F
:103190002307C8010E942307B1101FC060EE72E030
:1031A000C8010E944308B801C7010E942C0AC70148
:1031B0000E942307C8010E94230763ED72E0C80143
:1031C0000E944308B801C7010E942C0AC7010E944F
:1031D0002307C8010E942307A4CA6CE173E0C80159
:1031E0000E944308B801C7010E942C0AC7010E942F
:1031F0002307C8010E94230760E173E0C8010E9411
:103200004308B801C7010E942C0AC7010E94540A52
:10321000B82EC7010E942307C8010E942307BB20C4
:1032200009F4BCCF6CEF72E0C8010E944308B801FA
:10323000C7010E942C0AC7010E94540AB82EC70178
:103240000E942307C8010E942307BB2009F4A6CFD0
:10325000809104058F93809103058F938FE18F9365
:1032600080E98F938091DF048F938091DE048F93A8
:1032700089E993E09F938F931F9280E58F931F932B
:103280000F930E943B21B801C7010E94BA07B70102
:10329000C6010E942C0AC6010E94540AB82EC6011B
:1032A0000E942307C7010E9423070FB6F894DEBFD0
:1032B0000FBECDBFBB2009F471CF6CEE72E0C70129
:1032C0000E944308B701C6010E942C0AC6010E9451
:1032D0002307C7010E942307C7010E947108C70185
:1032E0000E9423075BCF8EED94E00E9423078DE3BD
:1032F00091E09093E5048093E40480911004909110
:103300001104845E944071F4E091F704F091F804A4
:1033100090818091F9048095892380831092110413
:103320001092100483E095E00C9423071F93FC0196
:1033300099278827BC01E89411911032E9F31930DC
:1033400010F01E30C8F31B3251F01D3249F468945E
:1033500006C00E94CD19610F711D811D911D119133
:1033600010531A30B0F33EF49095809570956195A6
:103370007F4F8F4F9F4F1F910895FB01DC010590F8
:103380000D920020E1F70895FC0105900020E9F777
:10339000809590958E0F9F1F0895592F482F372F96
:1033A000262F660F771F881F991F660F771F881FAC
:1033B000991F620F731F841F951F660F771F881F49
:1033C000991F0895ABE0B0E0E8EEF9E10C94901D90
:1033D0007C013B018A01FC0117821682838181FFF7
:1033E000C8C1CE0101965C01F7019381F30193FD01
:1033F000859193FF81913F01882309F453C1853260
:1034000039F493FD859193FF81913F01853229F431
:10341000B70190E00E94DB1BE7CF912C212C312CCF
:10342000FFE1F31538F08B3211F190F4803209F19D
:10343000833229F137FC3CC020ED280F2A3050F5AB
:1034400036FE20C08AE0989E200D1124922E06C0E0
:103450008D3291F0803371F7689430F8F30193FD69
:10346000859193FF81913F018111DACF21C068944A
:1034700031F8689432F8F2CF689433F8EFCF68945B
:1034800034F8ECCFEAE02E9E200D1124222E689411
:1034900035F8E4CF8E3229F436FC04C1689436F84E
:1034A000DDCF8C3619F4689437F8D8CF8836B1F26E
:1034B000982F9F7D95549330E0F08336A1F18337A8
:1034C000C1F1833509F063C02801F2E04F0E511CB1
:1034D000F801C080D180692D70E036FC02C06FEF2A
:1034E0007FEFC6010E94C51B4C01689437F882012A
:1034F0000AC00C5F1F4FFFE3F98388248394912C4B
:103500006501E89437F833FE2DC0522C81149104E4
:1035100071F5552009F468CFB70180E290E00E9470
:10352000DB1B5A94F6CFF801808189830E5F1F4F11
:10353000E4CF2801F2E04F0E511CF801C080D18089
:10354000692D70E036FC02C06FEF7FEFC6010E946C
:10355000D01B4C018201D5CFB70180E290E00E94E0
:10356000DB1B2A942814190409F0B0F7CECFF6011A
:1035700037FC859137FE81916F01B70190E00E9481
:10358000DB1B51105A94F1E08F1A9108BFCF84369B
:1035900019F0893609F077C0F80137FE6BC06081F9
:1035A0007181828193810C5F1F4FF32DFF763F2E37
:1035B00097FF09C090958095709561957F4F8F4FCB
:1035C0009F4F689437F82AE030E0A5010E940B1C59
:1035D000C82ECA188C2C432C36FE0CC0E89440F838
:1035E000C91440F434FE05C032FC03C0F32DFE7E46
:1035F0004F2E892C44FE95C0FE01EC0DF11D8081FB
:10360000803309F087C0242D297E422E842D8870B6
:10361000582E43FC95C040FE8FC09C2C821418F499
:103620002C0C922C981844FE91C0B70180E390E0D6
:103630000E94DB1B42FE09C088E790E041FE02C009
:1036400088E590E0B7010E94DB1BC91408F48AC02A
:10365000CA94D12C9FEFC91AD90ACA0CDB1CF601F7
:1036600082916F01B70190E00E94DB1BAC14BD0496
:10367000B1F74FCF60817181072E000C880B990B39
:103680000E5F1F4F92CFD32CE894D4F82AE030E09D
:10369000853739F1232D297FD22E8F3601F148F459
:1036A0008835A9F0F701868197812B96E2E10C9489
:1036B000AC1D803749F08837A9F7D4FE02C0689462
:1036C000D2F820E130E00DC06894D4F8F6CF34FE93
:1036D00003C0822F8660D82E20E132E002C028E0AD
:1036E00030E0F801D7FE0FC0608171818281938143
:1036F0000C5F1F4FA5010E940B1CC82ECA183D2C41
:10370000E89437F867CF6081718190E080E00E5FC8
:103710001F4FF0CF42FC02C0839478CF83948394F0
:1037200075CF842D867809F471CFF6CFB70180E28A
:1037300090E00E94DB1B83948214C0F3512C73CF62
:10374000522C5818821408F46ECFF8CF842D867846
:1037500009F47BCF8BE241FE80E247FC8DE2B701AA
:1037600090E071CFB70180E390E00E94DB1B9A9458
:103770006CCF8FEF9FEF99CF91110C943C1D80324D
:1037800019F089508550C8F70895FC0105906150E3
:1037900070400110D8F7809590958E0F9F1F089567
:1037A000FC016150704001900110D8F78095909510
:1037B0008E0F9F1F08950F931F93CF93DF93182FA2
:1037C000092FEB018B8181FD09C01FEF0FEF812FC6
:1037D000902FDF91CF911F910F91089582FF14C018
:1037E0002E813F818C819D81281739073CF4E88127
:1037F000F981CF0101969983888310838E819F81FF
:1038000001969F838E83E3CFE885F985812F099503
:10381000892BA1F3DACFFA01AA27283051F1203100
:1038200081F1E8946F936E7F6E5F7F4F8F4F9F4F54
:10383000AF4FB1E03ED0B4E03CD0670F781F891F96
:103840009A1FA11D680F791F8A1F911DA11D6A0F64
:10385000711D811D911DA11D20D009F468943F9117
:103860002AE0269F11243019305D3193DEF6CF0116
:103870000895462F4770405D4193B3E00FD0C9F7DC
:10388000F6CF462F4F70405D4A3318F0495D31FD49
:103890004052419302D0A9F7EACFB4E0A69597959C
:1038A000879577956795BA95C9F700976105710572
:1038B00008959B01AC010A2E0694579547953795BC
:1038C0002795BA95C9F7620F731F841F951FA01D16
:1038D00008950E94AB1C08F481E00895E89409C0A3
:1038E00097FB3EF490958095709561957F4F8F4F33
:1038F0009F4F9923A9F0F92F96E9BB279395F69549
:10390000879577956795B795F111F8CFFAF4BB0FC6
:1039100011F460FF1BC06F5F7F4F8F4F9F4F16C02A
:10392000882311F096E911C0772321F09EE8872FB4
:10393000762F05C0662371F096E8862F70E060E070
:103940002AF09A95660F771F881FDAF7880F9695E9
:10395000879597F90895990F0008550FAA0BE0E88D
:10396000FEEF16161706E807F907C0F01216130641
:10397000E407F50798F0621B730B840B950B39F481
:103980000A2661F0232B242B252B21F408950A26E7
:1039900009F4A140A6958FEF811D811D08950E9415
:1039A000E21C0C94561D0E94481D38F00E944F1DC9
:1039B00020F0952311F00C943F1D0C94451D11240B
:1039C0000C948A1D0E94671D70F3959FC1F3950F9B
:1039D00050E0551F629FF001729FBB27F00DB11D93
:1039E000639FAA27F00DB11DAA1F649F6627B00D23
:1039F000A11D661F829F2227B00DA11D621F739F0C
:103A0000B00DA11D621F839FA00D611D221F749F19
:103A10003327A00D611D231F849F600D211D822F60
:103A2000762F6A2F11249F5750409AF0F1F0882387
:103A30004AF0EE0FFF1FBB1F661F771F881F9150B4
:103A40005040A9F79E3F510580F00C943F1D0C9407
:103A50008A1D5F3FE4F3983ED4F38695779567958A
:103A6000B795F795E7959F5FC1F7FE2B880F911DDE
:103A70009695879597F9089599278827089597F936
:103A80009F6780E870E060E008959FEF80EC089504
:103A900000240A941616170618060906089500242D
:103AA0000A9412161306140605060895092E0394A7
:103AB000000C11F4882352F0BB0F40F4BF2B11F41B
:103AC00060FF04C06F5F7F4F8F4F9F4F089557FD7A
:103AD0009058440F551F59F05F3F71F04795880F7C
:103AE00097FB991F61F09F3F79F087950895121613
:103AF00013061406551FF2CF4695F1DF08C01616BF
:103B000017061806991FF1CF86957105610508946F
:103B10000895E894BB2766277727CB0197F9089586
:103B20002F923F924F925F926F927F928F929F92CD
:103B3000AF92BF92CF92DF92EF92FF920F931F93BB
:103B4000CF93DF93CDB7DEB7CA1BDB0B0FB6F8946C
:103B5000DEBF0FBECDBF09942A88398848885F84AC
:103B60006E847D848C849B84AA84B984C884DF801D
:103B7000EE80FD800C811B81AA81B981CE0FD11D01
:103B80000FB6F894DEBF0FBECDBFED010895A29F22
:103B9000B001B39FC001A39F700D811D1124911D21
:103BA000B29F700D811D1124911D08955058BB279F
:103BB000AA270E94EE1D0C94561D0E94481D38F045
:103BC0000E944F1D20F039F49F3F19F426F40C9405
:103BD000451D0EF4E095E7FB0C943F1DE92F0E9474
:103BE000671D58F3BA17620773078407950720F01B
:103BF00079F4A6F50C94891D0EF4E0950B2EBA2FDE
:103C0000A02D0B01B90190010C01CA01A0011124E2
:103C1000FF27591B99F0593F50F4503E68F11A168E
:103C2000F040A22F232F342F4427585FF3CF46951F
:103C300037952795A795F0405395C9F77EF41F1641
:103C4000BA0B620B730B840BBAF09150A1F0FF0F0B
:103C5000BB1F661F771F881FC2F70EC0BA0F621FF7
:103C6000731F841F48F4879577956795B795F795E7
:103C70009E3F08F0B0CF9395880F08F09927EE0F7C
:103C80009795879508950E94571E0C94561D0E9483
:103C90004F1D58F00E94481D40F029F45F3F29F065
:103CA0000C943F1D51110C948A1D0C94451D0E94CB
:103CB000671D68F39923B1F3552391F3951B550BB9
:103CC000BB27AA2762177307840738F09F5F5F4FEF
:103CD000220F331F441FAA1FA9F335D00E2E3AF02E
:103CE000E0E832D091505040E695001CCAF72BD046
:103CF000FE2F29D0660F771F881FBB1F2617370797
:103D00004807AB07B0E809F0BB0B802DBF01FF27C8
:103D100093585F4F3AF09E3F510578F00C943F1D49
:103D20000C948A1D5F3FE4F3983ED4F38695779513
:103D30006795B795F7959F5FC9F7880F911D969581
:103D4000879597F90895E1E0660F771F881FBB1FDD
:103D5000621773078407BA0720F0621B730B840B8A
:103D6000BA0BEE1F88F7E09508950E94BC1E689478
:103D7000B1110C948A1D08950E946F1D88F09F5701
:103D800098F0B92F9927B751B0F0E1F0660F771F7F
:103D9000881F991F1AF0BA95C9F714C0B13091F075
:103DA0000E94891DB1E008950C94891D672F782F1A
:103DB0008827B85F39F0B93FCCF38695779567953A
:103DC000B395D9F73EF490958095709561957F4FA6
:103DD0008F4F9F4F08950E94AB1C08F48FEF0895FA
:103DE0000E94AB1C880B990B0895A1E21A2EAA1B06
:103DF000BB1BFD010DC0AA1FBB1FEE1FFF1FA2179B
:103E0000B307E407F50720F0A21BB30BE40BF50B97
:103E1000661F771F881F991F1A9469F76095709520
:103E2000809590959B01AC01BD01CF0108950E9442
:103E3000C71DB7FF0895821B930B0895EE0FFF1F58
:103E40000590F491E02D09940F931F93CF93DF9386
:103E50008230910510F482E090E0E0910B05F09142
:103E60000C0530E020E0B0E0A0E0309799F4211597
:103E7000310509F44AC0281B390B24303105D8F527
:103E80008A819B816115710589F1FB01938382838E
:103E9000FE0111C0408151810281138148175907E9
:103EA000E0F04817590799F4109761F012960C93B7
:103EB000129713961C933296CF01DF91CF911F91E9
:103EC0000F91089500930B0510930C05F4CF211565
:103ED000310551F04217530738F0A901DB019A016F
:103EE000BD01DF01F801C1CFEF01F9CF90930C05BF
:103EF00080930B05CDCFFE01E20FF31F81939193C9
:103F00002250310939832883D7CF20910905309178
:103F10000A05232B41F420910C0130910D013093BF
:103F20000A052093090520910A0130910B01211502
:103F3000310541F42DB73EB740910E0150910F016C
:103F4000241B350BE0910905F0910A05E217F307F0
:103F5000A0F42E1B3F0B2817390778F0AC014E5FF9
:103F60005F4F2417350748F04E0F5F1F50930A0527
:103F700040930905819391939FCFF0E0E0E09CCFBF
:103F8000CF93DF930097E9F0FC01329713821282FE
:103F9000A0910B05B0910C05ED0130E020E01097E9
:103FA000A1F420813181820F931F20910905309166
:103FB0000A052817390709F061C0F0930A05E09354
:103FC0000905DF91CF910895EA01CE17DF07E8F5E3
:103FD0004A815B819E0141155105B1F7E901FB83DF
:103FE000EA8349915991C40FD51FEC17FD0761F47D
:103FF000808191810296840F951FE90199838883BE
:10400000828193819B838A83F0E0E0E012968D9118
:104010009C9113970097B9F52D913C911197CD0183
:104020000296820F931F2091090530910A052817E7
:10403000390739F6309751F510920C0510920B059F
:10404000B0930A05A0930905BCCFD383C2834081F6
:104050005181840F951FC817D90761F44E5F5F4FD8
:1040600088819981480F591F518340838A819B81A0
:10407000938382832115310509F0B0CFF0930C05AD
:10408000E0930B059ECFFD01DC01C0CF13821282AD
:10409000D7CFB0E0A0E0EFE4F0E20C94921D8C01E9
:1040A000009751F4CB010E94241F8C01C801CDB7A9
:1040B000DEB7E0E10C94AE1DFC01E60FF71F9C019A
:1040C00022503109E217F30708F49DC0D901CD91C0
:1040D000DC911197C617D70798F0C530D10530F39A
:1040E000CE0104978617970708F3C61BD70B2297B4
:1040F000C193D1936D937C93CF010E94C01FD6CF03
:104100005B01AC1ABD0A4C018C0E9D1EA0910B05E3
:10411000B0910C05512C412CF12CE12C109731F56C
:104120008091090590910A058815990509F05CC0F0
:104130004616570608F058C080910A0190910B016D
:10414000009741F48DB79EB740910E0150910F0139
:10415000841B950BE817F90708F055C0F0930A0582
:10416000E0930905F90171836083A0CF8D919C9143
:10417000119712966C90129713967C901397A8152E
:10418000B90559F56C0142E0C40ED11CCA14DB0418
:1041900020F1AC014A195B09DA011296159780F0FB
:1041A0006282738251834083D9016D937C93E114C1
:1041B000F10471F0D7011396FC93EE93129776CF2A
:1041C00022968C0F9D1FF90191838083F301EFCF1D
:1041D000F0930C05E0930B0569CF4816590608F4D7
:1041E0002C017D01D3019ACFCB010E94241F7C01B9
:1041F000009749F0AE01B8010E940621C8010E9453
:10420000C01F870153CF10E000E050CFFB01DC015D
:1042100002C001900D9241505040D8F70895FC0122
:104220008191861721F08823D9F79927089531972E
:10423000CF010895FB01DC0101900D920020E1F710
:104240000895FB0151915523A9F0BF01DC014D9167
:1042500045174111E1F759F4CD010190002049F0D3
:104260004D9140154111C9F3FB014111EFCF81E0A0
:1042700090E001970895AEE0B0E0E1E4F1E20C9443
:104280009E1D0D891E898F89988D26E02C831A83A7
:10429000098397FF02C080E090E801979E838D8399
:1042A000AE01455E5F4F698D7A8DCE0101960E9409
:1042B000E2194D815E8157FD0AC02F813885421772
:1042C00053070CF49A01020F131FF80110822E9667
:1042D000E4E00C94BA1D11E0C1EED1E004C0FE018F
:1042E0000E941E1F2196C23ED107C9F7F894FFCF46
:1042F000C800190609030000010100000D05800037
:104300002B39393839393030373437383700696E1E
:104310007465726E65740000000000CE032E035BAE
:10432000031B048C036A037E030000000054042E68
:104330000319055304B004C6043B040D0A0041549C
:104340002B434D47533D22003235003130392E3159
:1043500039392E3130372E31393500D09FD180D0C8
:10436000B8D187D0B8D0BDD0B020D0BFD0B5D18023
:10437000D0B5D0B7D0B0D0B3D180D183D0B7D0BA78
:10438000D0B820284D43555352203D20306200299B
:104390003A0020202D20506F7765722D6F6E2072AD
:1043A000657365742028D0B2D0BAD0BBD18ED187C6
:1043B000D0B5D0BDD0B8D0B520D0BFD0B8D182D084
:1043C000B0D0BDD0B8D18F290020202D20457874E1
:1043D00065726E616C2072657365742028D0BAD0E6
:1043E000BDD0BED0BFD0BAD0B020526573657420A6
:1043F000D0B8D0BBD0B820D0BFD0B8D0BD205245A7
:10440000534554290020202D2042726F776E2D6F66
:1044100075742072657365742028D0BFD0B0D0B495
:10442000D0B5D0BDD0B8D0B520D0BDD0B0D0BFD1E0
:1044300080D18FD0B6D0B5D0BDD0B8D18F290020D3
:10444000202D205761746368646F672072657365FF
:10445000742028D181D180D0B0D0B1D0BED182D04B
:10446000B0D0BB20D181D182D0BED180D0BED0B659
:10447000D0B5D0B2D0BED0B920D182D0B0D0B9D0D2
:10448000BCD0B5D180290020202D20D092D0BED024
:10449000B7D0BCD0BED0B6D0BDD0BE20D0BFD180AA
:1044A000D0BED0B3D180D0B0D0BCD0BCD0BDD18B29
:1044B000D0B9206A756D7020D0BDD0B0203020D02A
:1044C000B8D0BBD0B82053657269616C2D4454528A
:1044D00020D181D0B1D180D0BED18100537461721E
:1044E00074006E616E00696E66006F7666005465DA
:1044F000737420616C6572742E20434F206C657656
:10450000656C3A2025642070706D00414C41524D1D
:104510002120434F2064657465637465643A2025E7
:10452000642070706D0041542B53415042523D3312
:104530002C312C2241504E222C2225732200415432
:104540002B48545450504152413D2255524C222C3C
:104550002225733A25642F6D73672F6164643F646D
:1045600065766963655F69643D2573266D65737360
:104570006167655F747970653D25632670706D3D78
:10458000256422003230302C0041542B48545450C2
:10459000504152413D2255524C222C2225733A253E
:1045A000642F6465762F70696E673F646576696312
:0A45B000655F69643D257322000079
:00000001FF
