:020000040000FA
:100000000C9438010C94A40B0C947D0B0C94230CD1
:100010000C94230C0C94230C0C9460010C94600140
:100020000C9460010C9460010C9460010C949B0C86
:100030000C9460010C9460010C9460010C946001BC
:100040000C94330B0C9460010C94F10B0C94CB0BBF
:100050000C9460010C9460010C9460010C9460019C
:100060000C9460010C9460014F4B002B434D47539F
:100070003A00534D5320746578742073656E742C68
:100080002077616974696E6720666F7220636F6E96
:100090006669726D6174696F6E2E2E2E0041542B4D
:1000A000435343533D2247534D22004661696C65DB
:1000B0006420746F2073657420534D5320746578E9
:1000C00074206D6F6465004F4B0041542B434D47C6
:1000D000463D310050535554545A0043545A56002B
:1000E000445354004346554E004350494E00434D3F
:1000F0004500434D544900534D5300524459004369
:10010000616C6C005265616479004F4B0054696DFD
:10011000656F7574002D2D2D2D2D2D2D2D006174E5
:100120002B63737100526574727920534D532074A0
:100130006F2000534D532073656E7420746F200040
:100140000A4F4B000D0A4F4B002B48545450524558
:1001500041443A004552524F520041542B485454A6
:1001600050504152413D22434944222C31004154D8
:100170002B48545450494E49540041542B5341503C
:1001800042523D312C310041542B53415042523D9B
:10019000332C312C22434F4E54595045222C2247A8
:1001A00050525322200041542B53415042523D3073
:1001B0002C310041542B485454505445524D004169
:1001C000542B4854545052454144004445414354F3
:1001D000004F4B0041542B48545450414354494F15
:1001E0004E3D300053554343455353004661696CBF
:1001F000656420746F2073656E6420687474702069
:10020000726571756573740000000000240027009A
:100210002A00000000090003020000040508000095
:100220000000000000000000000000000023002685
:1002300000290000000000250028002B0004040411
:10024000040404040402020202020203030303037F
:100250000302020301020408102040800102040886
:10026000102001020408102040804000760D801507
:1002700011241FBECFEFD8E0DEBFCDBF24E0AEE635
:10028000B3E001C01D92A43AB207E1F713E0A0E089
:10029000B1E0E8E1F6E302C005900D92AE36B10799
:1002A000D9F711E0C7E3D1E004C02197FE010E9415
:1002B000E218C633D107C9F70E94360E0C94FF1A14
:1002C0000C94000090E0FC01EE5EFD4F2491FC01D7
:1002D000EC5AFD4F3491FC01E35CFD4FE491EE23B9
:1002E000C9F0222339F0243001F1A8F4223069F159
:1002F000233079F1F0E0EE0FFF1FED5CFD4FA5918B
:10030000B4918FB7F894EC91611126C030953E23DB
:100310003C938FBF0895283071F0293091F025303B
:1003200049F7809180008F7D03C0809180008F7796
:1003300080938000DFCF8091B0008F778093B000F2
:10034000D9CF8091B0008F7DF9CF84B58F7784BDF0
:10035000D1CF84B58F7DFBCF3E2BDACFCF93DF9308
:1003600090E0FC01EC5AFD4F2491835C9D4FFC0111
:1003700084918823C9F090E0880F991FFC01E85F01
:10038000FD4FA591B491FC01ED5CFD4FC591D49159
:1003900061110DC09FB7F8948C91209582238C93A6
:1003A0008881282328839FBFDF91CF9108956230F1
:1003B00051F49FB7F8943C91822F809583238C93BE
:1003C000E8812E2BEFCF8FB7F894EC912E2B2C9346
:1003D0008FBFEACF3FB7F8948091D4039091D503B3
:1003E000A091D603B091D70326B5A89B05C02F3F97
:1003F00019F00196A11DB11D3FBFBA2FA92F982F4B
:100400008827BC01CD01620F711D811D911D42E045
:10041000660F771F881F991F4A95D1F708958F920D
:100420009F92AF92BF92CF92DF92EF92FF924B01D9
:100430005C010E94EA016B017C01A8950E94EA011F
:100440006C197D098E099F09683E734081059105ED
:10045000A0F321E0821A9108A108B10888EEC80E25
:1004600083E0D81EE11CF11C81149104A104B104A5
:1004700029F7FF90EF90DF90CF90BF90AF909F90C3
:100480008F9008952FB7F8946091D0037091D103A5
:100490008091D2039091D3032FBF089581E0809380
:1004A000C6038093C1038093BB0308950895089504
:1004B000AF92BF92CF92DF92EF92FF920F931F9372
:1004C000CF93DF936C017B018B01040F151FEB01B0
:1004D0005E01AE18BF08C017D10759F06991D60167
:1004E000ED91FC910190F081E02DC6010995892BD9
:1004F00079F7C501DF91CF911F910F91FF90EF9098
:10050000DF90CF90BF90AF900895FC01538D448D44
:10051000252F30E0842F90E0821B930B541710F0AE
:10052000CF96089501970895FC01918D828D9817BB
:1005300061F0A28DAE0FBF2FB11D5D968C91928D93
:100540009F5F9F73928F90E008958FEF9FEF0895C4
:10055000FC01918D828D981731F0828DE80FF11D8D
:10056000858D90E008958FEF9FEF0895FC01918DA8
:10057000228D892F90E0805C9F4F821B91098F73A1
:100580009927089588ED93E00E94B60221E0892B17
:1005900009F420E0822F089580E090E0892B29F073
:1005A0000E94C20281110C9400000895FC01A48DE8
:1005B000A80FB92FB11DA35ABF4F2C91848D90E085
:1005C00001968F739927848FA689B7892C93A08968
:1005D000B1898C91837080648C93938D848D9813F2
:1005E00006C00288F389E02D80818F7D8083089585
:1005F000EF92FF920F931F93CF93DF93EC0181E073
:10060000888F9B8D8C8D98131AC0E889F989808119
:1006100085FF15C09FB7F894EE89FF896083E8894C
:10062000F98980818370806480839FBF81E090E03E
:10063000DF91CF911F910F91FF90EF900895F62ECB
:100640000B8D10E00F5F1F4F0F731127E02E8C8D65
:100650008E110CC00FB607FCFACFE889F9898081AA
:1006600085FFF5CFCE010E94D602F1CFEB8DEC0FC6
:10067000FD2FF11DE35AFF4FF0829FB7F8940B8FC7
:10068000EA89FB8980818062CFCF0F931F93CF933C
:10069000DF938C01D0E0C0E0F801EC0FFD1F649106
:1006A000662341F088ED93E00E94F802892B11F057
:1006B0002196F2CFCE01DF91CF911F910F91089536
:1006C000CF93DF93EC01888D8823B9F0AA89BB8989
:1006D000E889F9898C9185FD03C0808186FD0DC074
:1006E0000FB607FCF7CF8C9185FFF2CF808185FF95
:1006F000EDCFCE010E94D602E9CFDF91CF910895D0
:100700002091B4033091B5032817390771F4909103
:10071000B2038091B303981741F0E091B203F0E087
:10072000EE58FC4F808190E008958FEF9FEF089581
:100730000895EF92FF920F931F93CF93DF93DC0105
:100740005C96ED90FC905D97E114F10479F481E002
:1007500090E013969C938E93129790E080E0DF9147
:10076000CF911F910F91FF90EF9008955196ED91C9
:10077000FC91529750968C915097982F90950FB767
:100780005E962C915E97122F127021FD6095F89461
:100790002081112319F1282B2083E7012197F1F7FC
:1007A00028E0462F50E0308160FF1AC0382B30839C
:1007B000E7012197F1F7BA0175956795215089F7FF
:1007C000112381F08081892380830FBF5C968D91F6
:1007D0009C910197F1F781E090E0C1CF2923DCCF14
:1007E0003923E5CF9081892BEFCF2091B40330914D
:1007F000B5032817390761F48091B3032091B20340
:1008000090E0805C9F4F821B91098F739927089518
:1008100090E080E008952091B4033091B50328174B
:100820003907B9F49091B2038091B303981789F016
:10083000E091B203F0E0EE58FC4F80812091B203CA
:1008400030E02F5F3F4F2F7333272093B20390E0A8
:1008500008958FEF9FEF08950F931F930E94420218
:10086000609383047093840480938504909386043A
:100870008BE794E00E940B0497FF1DC00E94420288
:1008800000918304109184042091850430918604A2
:10089000601B710B820B930B00917F0410918004FD
:1008A00020918104309182046017710782079307B9
:1008B000F8F28FEF9FEF1F910F91089590E080E085
:1008C000089560E08CE00E94620168EE73E080E0D1
:1008D00090E00E940F0261E08CE00C946201CF93E3
:1008E000C82F8091C103811104C08091C60360E0CC
:1008F00081116C2F84E00E9462018091C0038111FC
:1009000008C08091B603811109C08091C60381118E
:1009100005C060E08DE0CF910C9462016C2FFACF9E
:100920008091C103882331F081E08093C00380E08F
:100930000C946F040895CF92DF92EF92FF920F9381
:100940001F93CF93DF93EC016A017B010E94420267
:10095000088119812A813B816017710782079307FB
:1009600028F50E944202AB01BC0188819981AA81CD
:10097000BB8180959095A095B095840F951FA61F7B
:10098000B71FC816D906EA06FB0680F40E94420289
:10099000688379838A839B8381E0DF91CF911F9164
:1009A0000F91FF90EF90DF90CF9008950E94420248
:1009B000088119812A813B81601B710B820B930B8B
:1009C000C616D706E806F90608F380E0E6CFFB0175
:1009D00001900020E9F73197AF01461B570BDC016E
:1009E000ED91FC910280F381E02D09948F929F920A
:1009F000AF92BF920F931F93CF93DF93CDB7DEB724
:100A0000A1970FB6F894DEBF0FBECDBF19A242303A
:100A100008F44AE08E010F5D1F4F842E912CB12CFB
:100A2000A12CA50194010E94B918E62FB901CA01B1
:100A3000EA3004F5E05DD801EE938D01232B242BE1
:100A4000252B79F790E080E0109729F0BD0188ED23
:100A500093E00E94E704A1960FB6F894DEBF0FBEA4
:100A6000CDBFDF91CF911F910F91BF90AF909F901D
:100A70008F900895E95CDFCFCF93DF93BC0188EDC1
:100A800093E00E94E704EC0162E471E088ED93E0FA
:100A90000E94E7048C0F9D1FDF91CF910895CF93A3
:100AA000DF930E944503EC0162E471E088ED93E07E
:100AB0000E94E7048C0F9D1FDF91CF9108950F9343
:100AC0001F93CF93DF93EC01FB014481558160813B
:100AD0007181E881F9810280F381E02D09958C0113
:100AE00062E471E0CE010E94E704800F911FDF9164
:100AF000CF911F910F910895AF92BF92CF92DF9245
:100B0000EF92FF920F931F93CF93DF93DC01CD9071
:100B1000DC901197C114D10439F01496CD91DC9179
:100B20008C017601209761F4DF91CF911F910F9195
:100B3000FF90EF90DF90CF90BF90AF900895750138
:100B40005701BFEFAB1ABB0AF7018081082E000CDA
:100B5000990B0E941416892B91F72197CC0DDD1D5E
:100B60008881082E000C990B0E941416892B29F0FD
:100B7000CE15DF0510F02197F3CFAE014F5F5F4F29
:100B80004E195F09D80115965C934E931497CE14B5
:100B9000DF0420F4B701C6010E94CA1AD801ED9102
:100BA000FC91119714968D919C91E80FF91F10827A
:100BB000BBCFCF93DF93FC012481358142175307CC
:100BC00088F4C081D181FB0160817181CE01840FE5
:100BD000951F0E94E51A009729F08C1B9D0BDF9151
:100BE000CF9108958FEF9FEFFACF50E040E00C9443
:100BF000D905CF93DF93FC01248135814217530738
:100C000088F4C081D181062E000C770BCE01840FB1
:100C1000951F0E94D31A009729F08C1B9D0BDF9122
:100C2000CF9108958FEF9FEFFACF0F931F93CF933C
:100C3000DF938C01EB01FC01808191810097E1F051
:100C40006881798161157105A9F0428153812C81F8
:100C50003D814217530770F00E94DE1A8C819D81FE
:100C6000F801958384831D821C82DF91CF911F91AF
:100C70000F9108950E94841988819981F8019183C8
:100C800080838A819B81938382838C819D819583DC
:100C90008483198218821B821A82E5CFCF93DF9357
:100CA000EC0188819981009711F00E9484191982C2
:100CB00018821D821C821B821A82DF91CF910895B7
:100CC000FC0180819181009711F00C9484190895A2
:100CD0000F931F93CF93DF93EC0188819981009745
:100CE00059F02A813B812617370730F081E0DF91E8
:100CF000CF911F910F9108958B016F5F7F4F0E94DD
:100D00000D1A009759F0998388831B830A832C81DD
:100D10003D81232B59F7FC011082E8CF80E0E7CF1B
:100D2000EF92FF920F931F93CF93DF93611571059D
:100D300041F480E0DF91CF911F910F91FF90EF90F0
:100D4000089541155105B1F07B01EC010C811D8125
:100D5000040F151FB8010E946806882351F32881EB
:100D600039818C819D81B701820F931F0E94DE1A09
:100D70001D830C8381E0DECFCF93DF93EC01FB0179
:100D800001900020E9F73197AF01461B570B0E94F5
:100D90009006811103C0CE010E944E06CE01DF9164
:100DA000CF910895CF93DF93EC01FB0144815581EE
:100DB000608171810E949006811103C0CE010E9462
:100DC0004E06CE01DF91CF910895FB0144815581FC
:100DD000608171810C949006EF92FF920F931F93A4
:100DE000CF93DF93EC017B018A01BA010E94680670
:100DF00081110BC0CE010E944E06CE01DF91CF9132
:100E00001F910F91FF90EF9008951D830C83B70100
:100E1000888199810E94DE1AF0CFEF92FF920F93A2
:100E20001F93CF93DF93CDB7DEB762970FB6F894D9
:100E3000DEBF0FBECDBF8C01CB01F8011182108245
:100E400013821282158214824AE09E012F5F3F4F67
:100E50007901B9010E94DA15F70101900020E9F744
:100E60003197AF014E195F09B701C8010E94EC0626
:100E700062960FB6F894DEBF0FBECDBFDF91CF9163
:100E80001F910F91FF90EF900895CF93DF93EC01A6
:100E9000FB018617970749F0608171816115710523
:100EA00041F0448155810E94EC06CE01DF91CF9143
:100EB00008950E944E06F9CFFC0111821082138220
:100EC0001282158214820C944507FC011182108253
:100ED0001382128215821482FB0101900020E9F72F
:100EE0003197AF01461B570B0C94EC06AF92BF92A3
:100EF000CF92DF92EF92FF920F931F93CF93DF93E6
:100F00007C016B015A0189012417350720F48B2DD0
:100F10005901042F182F64E471E0C7010E9465078E
:100F2000D6011496CD91DC91AC16BD0620F50C17B8
:100F30001D0708F4E801D601ED91FC911197EC0F23
:100F4000FD1F108110826D917C916A0D7B1D6115D2
:100F50007105E9F0FB0101900020E9F73197AF013D
:100F6000461B570BC7010E94EC06F6018081918158
:100F7000C80FD91F1883C701DF91CF911F910F911F
:100F8000FF90EF90DF90CF90BF90AF900895C70192
:100F90000E944E06EACFEF92FF920F931F93CF93DA
:100FA000DF93EC018B01198218821B821A821D8249
:100FB0001C82CB010E94D1157C01BC01CE010E9494
:100FC0006806811109C0CE01DF91CF911F910F9169
:100FD000FF90EF900C944E06FD82EC82B801888160
:100FE0009981DF91CF911F910F91FF90EF900C9419
:100FF000CA15AF92BF92CF92DF92EF92FF920F93FA
:101000001F93CF93DF93CDB7DEB7C455D1090FB689
:10101000F894DEBF0FBECDBF5C0164E471E0CE0189
:10102000815B9F4F0E94650702E911E08BE794E026
:101030000E94F503892B69F50150110919F58DE01E
:1010400091E00E944F050E94610464E471E0C501D3
:101050000E946507CE01815B9F4F0E946006C5011B
:10106000CC5ADF4F0FB6F894DEBF0FBECDBFDF9175
:10107000CF911F910F91FF90EF90DF90CF90BF9095
:10108000AF9008956AEF70E080E090E00E940F0258
:10109000CDCF64E471E0CE0101960E9465070E9405
:1010A0002C0497FD0CC08F83188641E050E0BE01F0
:1010B000695F7F4FCE0101960E949006F0CFBE017E
:1010C0006F5F7F4FCE01815B9F4F0E941506CE015F
:1010D00001960E946006BE01615B7F4F88ED93E040
:1010E0000E945F056AE071E0CE01875B9F4F0E941E
:1010F000CB07BE01675B7F4FCE01815B9F4F0E9494
:10110000F50510E0019609F00AC1BE01615B7F4F51
:10111000CE018D5B9F4F0E945C0764E071E0CE01C1
:1011200001960E94CB07BE016F5F7F4FCE018D5BA2
:101130009F4F0E94F50597FF07C16FEF70E0CE014A
:1011400007960E94CB07BE01695F7F4FCE018D5B82
:101150009F4F0E94F50597FF02C16BEF70E0CE0133
:101160000D960E94CB07BE01635F7F4FCE018D5B62
:101170009F4F0E94F505C12CD12CE12C97FFF9C09F
:1011800067EF70E0CE0143960E94CB07BE016D5E13
:101190007F4FCE018D5B9F4F0E94F505C12CD12C56
:1011A00097FFE5C062EF70E0CE0149960E94CB0741
:1011B000BE01675E7F4FCE018D5B9F4F0E94F5059C
:1011C000C12C97FFD2C06EEE70E0CE014F960E9408
:1011D000CB07BE01615E7F4FCE018D5B9F4F0E94AA
:1011E000F505CC24C39497FFC0C069EE70E0CE0132
:1011F00085960E94CB07BE016B5D7F4FCE018D5B54
:101200009F4F0E94F50597FFB7C064EE70E0CE01D6
:101210008B960E94CB07BE01655D7F4FCE018D5B33
:101220009F4F0E94F50511E097FF41C060EE70E00E
:10123000CE01C1960E94CB07BE016F5C7F4FCE01ED
:101240008D5B9F4F0E94F50511E097FF2CC06BED61
:1012500070E0CE01C7960E94CB07BE01695C7F4F4C
:10126000CE018D5B9F4F0E94F50511E097FF17C0DF
:1012700064ED70E0CE01CD960E94CB07BE01635CA9
:101280007F4FCE018D5B9F4F0E94F5059095192FE2
:10129000111F1127111FCE01CD960E946006CE01AD
:1012A000C7960E946006CE01C1960E946006CE01DC
:1012B0008B960E94600601E0FF24F394EE24E394F1
:1012C000DD24D394CC24C394CE0185960E9460067D
:1012D000CC2021F0CE014F960E946006DD2021F047
:1012E000CE0149960E946006EE2021F0CE01439681
:1012F0000E946006FF2021F0CE010D960E9460063C
:10130000002321F0CE0107960E946006CE010196CF
:101310000E946006CE018D5B9F4F0E946006CE0149
:10132000875B9F4F0E94600611117ECEF5011182EE
:1013300010821382128215821482BE01615B7F4F7C
:10134000C5010E94150686CEC12CD12CE12CF12CB2
:1013500000E080E011E0882309F4BACFB5CFC12CBA
:10136000D12CE12CF12C01E0F4CFDD24D394EE2438
:10137000E394FF24F394F7CFCC24C394DD24D394D7
:10138000EE24E394FF24F39401E081E0E3CFFF92A5
:101390000F931F93CF93DF938C01EB01F42E8C817D
:1013A0009D81892B51F4C8010E94F907C801DF9182
:1013B000CF911F910F91FF900895E881F98180816D
:1013C000882389F385E191E00E944F05BE0188EDF5
:1013D00093E00E945F05BE018BE794E00E945F05E9
:1013E000F110E1CF64E471E0C8010E946507DECF2F
:1013F000CF92DF92EF92FF921F93CF93DF93CDB7FF
:10140000DEB76E970FB6F894DEBF0FBECDBF182FB4
:101410007B016AEC70E0CE0101960E94CB0741E0AF
:10142000BE016F5F7F4FCE010D960E94C709CE01AE
:1014300001960E94600667EC70E0CE0101960E9462
:10144000CB07BE016F5F7F4FCE010D960E94F50561
:101450006C01CE0101960E946006CD20C094C1F4BB
:101460008BEA90E00E944F0510E0CE010D960E949D
:101470006006812F6E960FB6F894DEBF0FBECDBF0B
:10148000DF91CF911F91FF90EF90DF90CF90089563
:1014900064EF71E080E090E00E940F026DE970E07F
:1014A000CE0101960E94CB0741E0BE016F5F7F4FE6
:1014B000CE0107960E94C709CE0107960E946006DA
:1014C000CE0101960E94600664EF71E080E090E03A
:1014D0000E940F0265E471E0CE0101960E9465074B
:1014E000B701CE0101960E94D2066CE573E00E941E
:1014F000BC06BC01CE0143960E945C07CE0101965A
:101500000E946006BE016D5E7F4F8BE794E00E94F3
:101510005F05BE016D5E7F4F88ED93E00E945F0521
:1015200068EE73E080E090E00E940F0264E471E0F6
:10153000CE0149960E9465076091B7037091B80388
:101540008091B9039091BA03112309F483C00E94DA
:101550007918CE0107960E940D076FE471E0CE0165
:1015600001960E946507BE01695F7F4FCE0101961B
:101570000E94D20666E671E00E94BC06BC01CE0164
:1015800049960E944507CE0101960E946006CE0151
:1015900007960E9460064D8D5E8D698D7A8D8BE772
:1015A00094E00E94580264EF71E080E090E00E94B5
:1015B0000F026AE18BE794E00E94990382E790E0D2
:1015C0000E944F0568E873E180E090E00E940F02FE
:1015D000CE0101960E94F907BE016F5F7F4FCE01D9
:1015E0000D960E941506CE0101960E9460066BE6DC
:1015F00070E0CE0107960E94CB07BE01695F7F4F66
:10160000CE010D960E94F50511E097FF16C068E621
:1016100070E0CE0101960E94CB07BE016F5F7F4F45
:10162000CE010D960E94F5059095192F111F1127D7
:10163000111FCE0101960E946006CE0107960E94FE
:101640006006CE0149960E946006CE0143960E9434
:1016500060060BCF0E947918CE0107960E940D07F5
:101660006BE671E07CCF1F920F920FB60F921124A0
:101670002F933F938F939F93AF93BF938091D0030A
:101680009091D103A091D203B091D3033091CF03B5
:1016900023E0230F2D3768F126E8230F0296A11DC2
:1016A000B11D2093CF038093D0039093D103A093D7
:1016B000D203B093D3038091D4039091D503A0912A
:1016C000D603B091D7030196A11DB11D8093D40319
:1016D0009093D503A093D603B093D703BF91AF9156
:1016E0009F918F913F912F910F900FBE0F901F9060
:1016F00018950196A11DB11DD4CF1F920F920FB660
:101700000F9211242F933F934F935F936F937F9387
:101710008F939F93AF93BF93EF93FF93E091060155
:10172000F09107010995FF91EF91BF91AF919F91C2
:101730008F917F916F915F914F913F912F910F907A
:101740000FBE0F901F9018951F920F920FB60F9219
:1017500011242F933F934F935F936F937F938F93B6
:101760009F93AF93BF93EF93FF93E0910401F091A8
:1017700005010995FF91EF91BF91AF919F918F91D5
:101780007F916F915F914F913F912F910F900FBE7D
:101790000F901F9018951F920F920FB60F92112461
:1017A0002F933F934F935F936F937F938F939F9369
:1017B000AF93BF93EF93FF9388ED93E00E94D6021F
:1017C000FF91EF91BF91AF919F918F917F916F9119
:1017D0005F914F913F912F910F900FBE0F901F90EF
:1017E00018951F920F920FB60F9211242F938F937B
:1017F0009F93EF93FF93E091E803F091E9038081D9
:10180000E091EE03F091EF0382FD1BC09081809187
:10181000F1038F5F8F732091F203821741F0E09103
:10182000F103F0E0E852FC4F958F8093F103FF91B4
:10183000EF919F918F912F910F900FBE0F901F905E
:1018400018958081F4CF1F920F920FB60F9211243A
:101850002F933F934F935F936F937F938F939F93B8
:10186000AF93BF93EF93FF93E091B403F091B5036F
:10187000309749F0A685B7858585968D91FF14C070
:101880009C918923A1F4FF91EF91BF91AF919F911A
:101890008F917F916F915F914F913F912F910F9019
:1018A0000FBE0F901F9018959C91892361F7A38913
:1018B000B4899C918589809589238C9386899789A1
:1018C0000197F1F7608D718DA685B785558538E054
:1018D00020E0CB010197F1F7822F90E09595879555
:1018E000282F4C91452309F02068315091F7868DBF
:1018F00081FD20958091B30390E001968F73992725
:101900003091B203381799F0A091B303B0E0AE580C
:10191000BC4F2C938093B303828D938D0197F1F785
:10192000A389B4898C919589892B8C93ACCF868DB2
:101930008160868FF1CF1F920F920FB60F92112404
:101940002F933F934F935F936F937F938F939F93C7
:10195000AF93BF93EF93FF9380910801882329F001
:101960008091C603882309F44FC08091C10381117F
:1019700005C08091C603882309F4B0C0809170032C
:101980009091710341970CF458C088EE93E09093C6
:1019900001018093000180E00E946F0410927103A6
:1019A000109270038091C603882399F080916E0392
:1019B00090916F03019690936F0380936E034F97FE
:1019C00044F01092C6031092C10310926F0310925C
:1019D0006E03A0910001B09101012FE030E00E9460
:1019E000DB18DC01CB010197A109B109009721E0C7
:1019F000A207B10520F08FEF9FEFA0E0B0E0909339
:101A0000030180930201A895809102019091030146
:101A10009093890080938800FF91EF91BF91AF91DF
:101A20009F918F917F916F915F914F913F912F91F6
:101A30000F900FBE0F901F9018958091700390919A
:101A400071030597F1F080917003909171030797EE
:101A5000C1F08091700390917103099791F080918A
:101A60007003909171030B9761F0809170039091D6
:101A700071030697C9F481E00E946F0480E991E048
:101A800005C080E00E946F0488EC90E09093010113
:101A9000809300018091700390917103019690935F
:101AA00071038093700395CF8091700390917103BF
:101AB000089709F380917003909171030A97D9F206
:101AC000809170039091710380FD02C081E001C09C
:101AD00080E00E946F0484E690E0D8CF80E00E940E
:101AE0006F04109271031092700373CFCF92DF9244
:101AF000EF92FF921092DB031092DA0398EEC92E58
:101B000093E0D92EE12CF12CC092DC03D092DD03BE
:101B1000E092DE03F092DF0382E291E09093D9033A
:101B20008093D80385EC90E09093E5038093E403E1
:101B300084EC90E09093E7038093E60380EC90E0E0
:101B40009093E9038093E80381EC90E09093EB039A
:101B50008093EA0382EC90E09093ED038093EC0392
:101B600086EC90E09093EF038093EE031092F103E4
:101B70001092F2031092F3031092F40360E871E004
:101B80008AE994E00E94650710927E0410927D0419
:101B9000C0927F04D0928004E0928104F09282048B
:101BA00084E391E090937C0480937B0410929204F0
:101BB000109291041092940410929304109296043F
:101BC00010929504109298041092970460919904D1
:101BD0006E7F6D7F609399046695617081E06827E0
:101BE0008BE00E94620161E08BE00E94AE01EFE5B4
:101BF000F2E0E491E0938B04E8E4F2E0E491F0E0B9
:101C0000EE0FFF1FED5CFD4F8591949190938D0435
:101C100080938C0460E08AE00E94AE018091990478
:101C200081FD04C061E08AE00E9462018AE0809345
:101C30008704EEE5F2E0E491E0938804E7E4F2E063
:101C4000E491F0E0EE0FFF1FE75DFD4F8591949169
:101C500090938A048093890464E871E085E794E0B6
:101C6000FF90EF90DF90CF900C946507CF93DF93B8
:101C7000CDB7DEB7A4970FB6F894DEBF0FBECDBFC9
:101C8000789484B5836084BD85B5836085BD80917B
:101C90006E00816080936E0012E01093810080914D
:101CA00081008160809381008091800081608093B9
:101CB00080008091B10084608093B1008091B00079
:101CC00081608093B00087E880937A001092C10011
:101CD00081E08093080161E08DE00E94AE0161E047
:101CE00084E00E94AE0161E085E00E94AE0162E006
:101CF00082E00E94AE0162E083E00E94AE0161E0FA
:101D00008CE00E94AE0160E080E10E94AE0160E0E4
:101D10008DE00E94620180E994E090930501809338
:101D20000401809169008C7F826080936900E89A49
:101D30008EE492E090930701809306018091690000
:101D4000837F886080936900E99A10920901E0918D
:101D5000E803F091E9031083E091E403F091E503D7
:101D60001082E091E603F091E7038FEC80831092FC
:101D7000F003E091EC03F091ED0386E08083E091C5
:101D8000EA03F091EB03808188698083E091EA03A4
:101D9000F091EB0380818F7D8083109296041092E6
:101DA000950410929404109293041092920410924D
:101DB00091048DEC90E09093980480939704809127
:101DC0008704873108F04BC025E530E0309392045A
:101DD000209391042BEC30E03093940420939304EF
:101DE00020E930E030939604209395042091680018
:101DF00094E0883054F091E08E303CF092E08431F1
:101E000024F091E0863109F490E0922B90936800E1
:101E10002DE630E0883074F08E300CF419C2843135
:101E20003CF086310CF414C230E020E0863111F42D
:101E30002CE630E030938F0420938E0488300CF031
:101E40000AC291E001C0990F8A95EAF7892F809321
:101E5000900480919704909198040197F1F78091F4
:101E6000950490919604892B49F1E091B403F09187
:101E7000B50324E0EB37F20709F1309739F0A38975
:101E8000B4899C918589809589238C93809199044C
:101E90008E7F809399041092B3031092B2038BE764
:101EA00094E09093B5038093B403E0918E04F09195
:101EB0008F04808190919004892B808314B714BE85
:101EC0000FB6F894A89580916000886180936000B7
:101ED000109260000FBE63E971E088ED93E00E940C
:101EE000E704612F70E090E080E042E00E94F60499
:101EF00087EC91E00E943C0510FF04C08AEC91E061
:101F00000E943C0511FF04C081E092E00E943C0564
:101F100012FF04C08DE392E00E943C0587E792E047
:101F200013FD04C0111104C08FEB92E00E943C0528
:101F300062E471E088ED93E00E94E704F894109267
:101F4000800010928100109285001092840089E137
:101F500096E090938900809388008091810088604A
:101F600080938100809181008560809381008091C1
:101F70006F00826080936F00789488E199E20FB6D9
:101F8000F894A895809360000FBE90936000109223
:101F9000080184E193E00E943C053324339400E07F
:101FA00010E040E050E0BA018BEC93E00E949B040B
:101FB000882309F4B4C034E6E32EF12C412C512CD3
:101FC000320180910901E0E48E9FC00111248260FA
:101FD00080937C0080917A00806480937A00809165
:101FE0007A0086FDFCCF6091780070917900072E11
:101FF000000C880B990B0E9434169B01AC01C301A5
:10200000B2010E949B172B013C016AE070E080E066
:1020100090E00E940F02F1E0EF1AF10891F620E043
:1020200030E048EC52E4C301B2010E94071820E0FE
:1020300030E040E85AE30E94931620E030E04AE79F
:1020400054E40E9493166B017C0120E030E040EAEA
:1020500051E40E942D1687FF03C0C12CD12C7601BC
:10206000C092B703D092B803E092B903F092BA03DA
:102070006AE173E088ED93E00E94E704A70196010E
:10208000C701B6010E94B4186EE173E081111BC054
:1020900026013701E89477F82FEF3FEF4FE75FE72E
:1020A000C301B2010E94B4188111E3C02FEF3FEFCA
:1020B0004FE75FE7C301B2010E942D1618160CF01E
:1020C000D8C062E273E088ED93E00E94E70462E426
:1020D00071E088ED93E00E94E7048091C6038111CE
:1020E0001EC08091C10381113BC120E030E048E473
:1020F00053E4C701B6010E94AF1887FF3092C103B5
:102100008091B603811139C120E030E046E953E403
:10211000C701B6010E94AF1887FF3092B60340EDA9
:1021200057E060E070E087EC93E00E949B04882316
:1021300009F46EC0D090C6038091BB03811103C027
:10214000DD2009F465C061E08CE00E94620160ED71
:1021500077E080E090E00E940F0223E0E22EF12C75
:102160006EE171E0CE0107960E94CB0740E0BE0110
:10217000695F7F4FCE0101960E94C709CE0101968B
:102180000E946006CE0107960E94600668EB7BE025
:1021900080E090E00E940F02CE0107960E94F907AE
:1021A00050E040E060E2CE0107960E94F9052B85E1
:1021B0003C85AC014F5F5F4FBE01695F7F4FCE0131
:1021C00001960E94760789819A81009709F4E2C0FE
:1021D0000E94A3154B01CE0101960E94600623E6E2
:1021E0008216910411F4912C812CCE0107960E9445
:1021F0006006181419040CF411C368EE73E080E053
:1022000090E00E940F0281E0E81AF10809F0A8CFDF
:1022100048E853E160E070E082EC93E00E949B04A8
:102220009091C103882309F4CBC29111CCC261E023
:1022300085E00E94620162E370E080E090E00E942D
:102240000F0260E085E00E9462011092C003BBC2F1
:102250002BE630E0EFCD8E3014F48850F2CD86318D
:1022600014F48E50EECD863111F080E0F0CD80E494
:10227000EECD2FEF3FEF4FE75FE4C701B6010E94BD
:10228000AF1818161CF466E273E01DCF2FEF3FEF76
:102290004FE75FECC701B6010E942D1687FDF3CF13
:1022A00020E030E0A901C701B6010E942D1687FF8A
:1022B00054C06DE288ED93E00E94F802C701B601B8
:1022C00090582AE037ED43EA5BE30E949B174B01ED
:1022D0005C010E9480182B013C010E9432169B0178
:1022E000AC01C501B4010E949A174B015C014AE0A0
:1022F000C301B2010E94F6046EE288ED93E00E94F1
:10230000F80220E030E040E251E4C501B4010E944F
:1023100093164B015C010E9480182B01712C612CDB
:102320004AE0C301B2010E94F604C301B2010E9457
:1023300032169B01AC01C501B4010E949A1720E03E
:1023400030E040E251E40E9493160E94801890E031
:1023500080E04AE00E94F604BACEC701B601B1CFD0
:1023600020E030E046E153E4C701B6010E942D169B
:1023700087FFC6CE1092C103C3CE20E030E04AE70B
:1023800053E4C701B6010E942D1687FFC8CE1092F4
:10239000B603C5CE60E070E0CB011CCF64ED71E008
:1023A000CE0101960E94CB0741E0BE016F5F7F4FD7
:1023B000CE0143960E94C709CE0101960E94600695
:1023C00061ED71E0CE0101960E94CB07BE016F5F07
:1023D0007F4FCE0143960E94F505F12C97FD16C064
:1023E0006BEC71E0CE0107960E94CB07BE01695FDE
:1023F0007F4FCE0143960E94F505FF24F39401968A
:1024000009F0F12CCE0107960E946006CE010196DC
:102410000E946006FF2009F470C0CE0101960E9460
:10242000F9076EE573E0CE0107960E946507BE01CD
:10243000695F7F4FCE0101960E94F5057C01CE01B8
:1024400007960E946006CE0101960E946006F7FC86
:1024500054C06FEB71E0CE0101960E94CB0741E0C2
:10246000BE016F5F7F4FCE010D960E94C709CE015E
:1024700001960E94600663EB71E0CE0107960E9410
:10248000CB0741E0BE01695F7F4FCE0101960E94FC
:10249000C709CE0101960E946006CE0107960E94F0
:1024A000600666EA71E0CE0107960E94CB0741E024
:1024B000BE01695F7F4FCE0101960E94C709CE0120
:1024C00001960E946006CE0107960E94600618A23F
:1024D0001F8E1AA219A21CA21BA2BE01635F7F4F0E
:1024E000CE014F960E941506CE010D960E94600601
:1024F000CE0143960E946006E8C264E471E0CE011A
:102500004F960E946507F4CFBE01615E7F4FCE01FA
:1025100007960E945C0769E471E0CE0101960E9473
:10252000CB07BE016F5F7F4FCE0107960E94F50576
:102530007C01CE0101960E9460062FEFE216F206A2
:1025400009F0A5C064E471E0CE0149960E946507D8
:10255000CE0107960E9460068D8D9E8D892B09F411
:102560002AC1E98DFA8D309709F425C18081813324
:1025700009F021C184EE91E00E944F051092BB0347
:102580008091C60381111092C60350E040E06CE2D6
:10259000CE0149960E94F9058F3F980709F407C1BB
:1025A0002D8D3E8DAC014F5F5F4FBE01675E7F4F4B
:1025B000CE0143960E947607BE016D5E7F4FCE012D
:1025C0000D960E945C07F12CE12C89899A89E81606
:1025D000F9060CF0E4C0A7016CE2CE010D960E9452
:1025E000F9054C0164E471E0CE0107960E9465078D
:1025F000FFEF8F169F0609F0A7C029893A89A70126
:10260000BE01635F7F4FCE0101960E947607BE0137
:102610006F5F7F4FCE0107960E941506CE0101968F
:102620000E946006E988FA88CE0107960E947C0520
:102630008B859C85892B31F1BE01695F7F4FCE016F
:1026400001960E945C07BE016F5F7F4F8D2D0E9437
:10265000F809C82ECE0101960E946006CC2009F42C
:102660008CC083E391E00E944503BE01695F7F4F08
:1026700088ED93E00E945F0560ED77E080E090E0F8
:102680000E940F02CE0107960E9460069ECFA7010E
:102690006AE0CE0107960E94F9058F3F980709F47A
:1026A00051CF7C01FFEFEF1AFF0A64E471E0CE0125
:1026B00001960E94CB07A701BE016F5F7F4FCE013D
:1026C00007960E94D9054C01CE0101960E94600632
:1026D0002FEF82169206C9F460E471E0CE010196F4
:1026E0000E94CB07A701BE016F5F7F4FCE01079607
:1026F0000E94D9054C01CE0101960E9460068FEF21
:102700008816980611F48B849C849401A701BE015D
:10271000695F7F4FCE0101960E947607CE01019638
:102720000E947C051A8E198E1C8E1B8E1E8E1D8E8D
:10273000BE016F5F7F4FCE0149960E941506CE0104
:1027400001960E94600604CF9401A701BE01635F59
:102750007F4FCE0101960E947607BE016F5F7F4FCB
:10276000CE0107960E941506CE0101960E946006D2
:1027700074012FEFE21AF20A57CF85E291E00E942E
:102780004503BE01695F7F4F88ED93E00E945F05BE
:1027900060ED77E080E090E00E940F024DCFCE0127
:1027A0000D960E946006CE0143960E94600660E08E
:1027B0008CE00E946201CE0149960E9460069BC196
:1027C000992309F442CD40EA5FE060E070E08CEBD1
:1027D00093E00E949B04882309F0A8950E9442027E
:1027E00061387E4E8643910568F08091C103811166
:1027F00009C08091C603811105C00E946104F0E008
:10280000E0E009950115110509F4CBCB0E94C20245
:10281000882309F4C2CB0E940000BFCB60E171E0C5
:10282000CE0101960E946507BE016F5F7F4F8D2D1F
:102830000E94F809CE0101960E94600660ED77E0E3
:1028400080E090E00E940F0264E471E0CE014F96B8
:102850000E94650767E871E0CE0107960E94CB07EA
:1028600041E0BE01695F7F4FCE0101960E94C7091A
:10287000BE016F5F7F4FCE014F960E94E506CE01ED
:1028800001960E946006CE0107960E9460066AE7E4
:1028900071E0CE0107960E94CB0741E0BE01695F5F
:1028A0007F4FCE0101960E94C709BE016F5F7F4F27
:1028B000CE014F960E94E506CE0101960E94600669
:1028C000CE0107960E9460066EE671E0CE01079683
:1028D0000E94CB0741E0BE01695F7F4FCE010196A8
:1028E0000E94C709BE016F5F7F4FCE014F960E94C5
:1028F000E506CE0101960E946006CE0107960E9471
:1029000060066AE571E0CE0107960E94CB0741E0C0
:10291000BE01695F7F4FCE0101960E94C709BE01CB
:102920006F5F7F4FCE014F960E94E506CE01019664
:102930000E946006CE0107960E94600663E673E07F
:10294000CE010D960E94650783E3C82ED11002C008
:1029500092E3C92E6091B7037091B8038091B903D7
:102960009091BA030E947918CE0101960E940D073A
:10297000BE01635F7F4FCE0107960E945C076AE24B
:1029800073E0CE0107960E94BC066AE974E00E94DB
:10299000D20665E373E00E94BC067C01CB8A1C8AE8
:1029A00041E050E0BE016D5E7F4F0E9490068111B4
:1029B00003C0C7010E944E0664E473E0C7010E9491
:1029C000BC06BE016F5F7F4F0E94D206BC01CE01E4
:1029D00043960E945C07CE0107960E946006CE01D6
:1029E00001960E946006CE010D960E94600660E985
:1029F0007FE1CE010D960E940D076AE473E0CE01DF
:102A000049960E94650765E774E0CE0149960E94E9
:102A1000D20668EC71E00E94BC06BE01635F7F4F86
:102A20000E94D206BE016D5E7F4F0E94D2066CE509
:102A300073E00E94BC06BC01CE0107960E945C07B1
:102A400041E0BE01695F7F4FCE0101960E94C70938
:102A5000BE016F5F7F4FCE014F960E94E506CE010B
:102A600001960E946006CE0107960E946006CE0184
:102A700049960E946006CE010D960E946006CE0126
:102A800043960E94600664E571E0CE0101960E94C3
:102A9000CB07BE016F5F7F4FCE014F960E94F505B9
:102AA0007C01CE0101960E946006CE014F960E94E5
:102AB0006006EF20E09409F471CC0E94610464E4A4
:102AC00071E0CE014F960E946507BE01615E7F4FA7
:102AD00088ED93E00E945F058BA19CA1892B29F0D2
:102AE000EF8DF8A1808181110FCD8CEE91E00E94D5
:102AF0004F050E946104CE014F960E94600688CB6C
:102B000085E794E00E94600684E391E090937C0462
:102B100080937B048091B4039091B5038B579440CC
:102B200071F4E0918E04F0918F0490818091900473
:102B30008095892380831092B5031092B4038AE9AB
:102B400094E00C9460061F93FC0199278827BC0130
:102B5000E89411911032E9F3193010F01E30C8F3E7
:102B60001B3251F01D3249F4689406C00E94E515ED
:102B7000610F711D811D911D119110531A30B0F319
:102B80003EF490958095709561957F4F8F4F9F4F44
:102B90001F910895FB01DC0105900D920020E1F7E3
:102BA0000895FC0105900020E9F7809590958E0F1F
:102BB0009F1F0895BB274A3031F4992322F4BDE2C8
:102BC000909581959F4F0C94FB15592F482F372FC7
:102BD000262F660F771F881F991F660F771F881F84
:102BE000991F620F731F841F951F660F771F881F21
:102BF000991F0895BB27FB015527AA27880F991F06
:102C0000AA1FA41710F0A41B83955051B9F7A05D1B
:102C1000AA3308F0A95DA193009779F7B111B19398
:102C20001192CB010C941D1691110C940017803257
:102C300019F089508550C8F70895DC01FC01672F11
:102C400071917723E1F7329704C07C916D93708383
:102C50006291AE17BF07C8F308950E946F1608F47B
:102C600081E00895E89409C097FB3EF49095809523
:102C7000709561957F4F8F4F9F4F9923A9F0F92F42
:102C800096E9BB279395F695879577956795B795C0
:102C9000F111F8CFFAF4BB0F11F460FF1BC06F5FA6
:102CA0007F4F8F4F9F4F16C0882311F096E911C0B8
:102CB000772321F09EE8872F762F05C0662371F0D9
:102CC00096E8862F70E060E02AF09A95660F771FED
:102CD000881FDAF7880F9695879597F90895990FC9
:102CE0000008550FAA0BE0E8FEEF16161706E807D6
:102CF000F907C0F012161306E407F50798F0621BF7
:102D0000730B840B950B39F40A2661F0232B242BCB
:102D1000252B21F408950A2609F4A140A6958FEFEA
:102D2000811D811D08950E94A6160C941A170E94F9
:102D30000C1738F00E94131720F0952311F00C9413
:102D400003170C94091711240C944E170E942B178B
:102D500070F3959FC1F3950F50E0551F629FF001EE
:102D6000729FBB27F00DB11D639FAA27F00DB11D07
:102D7000AA1F649F6627B00DA11D661F829F222790
:102D8000B00DA11D621F739FB00DA11D621F839F17
:102D9000A00D611D221F749F3327A00D611D231FED
:102DA000849F600D211D822F762F6A2F11249F573B
:102DB00050409AF0F1F088234AF0EE0FFF1FBB1F3E
:102DC000661F771F881F91505040A9F79E3F5105FD
:102DD00080F00C9403170C944E175F3FE4F3983E79
:102DE000D4F3869577956795B795F795E7959F5FA7
:102DF000C1F7FE2B880F911D9695879597F9089539
:102E000099278827089597F99F6780E870E060E028
:102E100008959FEF80EC089500240A941616170673
:102E200018060906089500240A94121613061406BB
:102E300005060895092E0394000C11F4882352F01E
:102E4000BB0F40F4BF2B11F460FF04C06F5F7F4FD6
:102E50008F4F9F4F089557FD9058440F551F59F0BD
:102E60005F3F71F04795880F97FB991F61F09F3F77
:102E700079F087950895121613061406551FF2CFA0
:102E80004695F1DF08C0161617061806991FF1CFF0
:102E900086957105610508940895E894BB27662717
:102EA0007727CB0197F908952F923F924F925F9227
:102EB0006F927F928F929F92AF92BF92CF92DF924A
:102EC000EF92FF920F931F93CF93DF93CDB7DEB7AF
:102ED000CA1BDB0B0FB6F894DEBF0FBECDBF099443
:102EE0002A88398848885F846E847D848C849B849A
:102EF000AA84B984C884DF80EE80FD800C811B81A8
:102F0000AA81B981CE0FD11D0FB6F894DEBF0FBED6
:102F1000CDBFED010895A29FB001B39FC001A39F53
:102F2000700D811D1124911DB29F700D811D112402
:102F3000911D08955058BB27AA270E94B2170C94E0
:102F40001A170E940C1738F00E94131720F039F45A
:102F50009F3F19F426F40C9409170EF4E095E7FB53
:102F60000C940317E92F0E942B1758F3BA17620726
:102F700073078407950720F079F4A6F50C944D1794
:102F80000EF4E0950B2EBA2FA02D0B01B901900184
:102F90000C01CA01A0011124FF27591B99F0593FC8
:102FA00050F4503E68F11A16F040A22F232F342F10
:102FB0004427585FF3CF469537952795A795F0405E
:102FC0005395C9F77EF41F16BA0B620B730B840B73
:102FD000BAF09150A1F0FF0FBB1F661F771F881F2B
:102FE000C2F70EC0BA0F621F731F841F48F4879583
:102FF00077956795B795F7959E3F08F0B0CF939575
:10300000880F08F09927EE0F9795879508950E94ED
:103010001B180C941A170E94131758F00E940C17D3
:1030200040F029F45F3F29F00C94031751110C94E0
:103030004E170C9409170E942B1768F39923B1F3CC
:10304000552391F3951B550BBB27AA2762177307CE
:10305000840738F09F5F5F4F220F331F441FAA1F62
:10306000A9F335D00E2E3AF0E0E832D0915050401E
:10307000E695001CCAF72BD0FE2F29D0660F771FCC
:10308000881FBB1F261737074807AB07B0E809F0B2
:10309000BB0B802DBF01FF2793585F4F3AF09E3F37
:1030A000510578F00C9403170C944E175F3FE4F32E
:1030B000983ED4F3869577956795B795F7959F5F7A
:1030C000C9F7880F911D9695879597F90895E1E0C6
:1030D000660F771F881FBB1F621773078407BA0725
:1030E00020F0621B730B840BBA0BEE1F88F7E09580
:1030F00008950E9480186894B1110C944E17089599
:103100000E94331788F09F5798F0B92F9927B7512D
:10311000B0F0E1F0660F771F881F991F1AF0BA957B
:10312000C9F714C0B13091F00E944D17B1E0089575
:103130000C944D17672F782F8827B85F39F0B93F67
:10314000CCF3869577956795B395D9F73EF490952E
:103150008095709561957F4F8F4F9F4F08950E9486
:103160006F1608F48FEF08950E946F16880B990B65
:103170000895A1E21A2EAA1BBB1BFD010DC0AA1FB8
:10318000BB1FEE1FFF1FA217B307E407F50720F0D0
:10319000A21BB30BE40BF50B661F771F881F991F4B
:1031A0001A9469F760957095809590959B01AC0194
:1031B000BD01CF0108950E948B17B7FF0895821BB0
:1031C000930B0895EE0FFF1F0590F491E02D0994E5
:1031D0000F931F93CF93DF938230910510F482E019
:1031E00090E0E091A204F091A30430E020E0B0E090
:1031F000A0E0309799F42115310509F44AC0281B45
:10320000390B24303105D8F58A819B816115710510
:1032100089F1FB0193838283FE0111C040815181BA
:103220000281138148175907E0F04817590799F4AC
:10323000109761F012960C93129713961C93329686
:10324000CF01DF91CF911F910F9108950093A204B8
:103250001093A304F4CF2115310551F04217530701
:1032600038F0A901DB019A01BD01DF01F801C1CFEE
:10327000EF01F9CF9093A3048093A204CDCFFE0178
:10328000E20FF31F819391932250310939832883F0
:10329000D7CF2091A0043091A104232B41F4209199
:1032A0000C0130910D013093A1042093A0042091D2
:1032B0000A0130910B012115310541F42DB73EB7BC
:1032C00040910E0150910F01241B350BE091A00499
:1032D000F091A104E217F307A0F42E1B3F0B28176F
:1032E000390778F0AC014E5F5F4F2417350748F07F
:1032F0004E0F5F1F5093A1044093A00481939193BC
:103300009FCFF0E0E0E09CCFCF93DF930097E9F010
:10331000FC01329713821282A091A204B091A304FF
:10332000ED0130E020E01097A1F420813181820F7F
:10333000931F2091A0043091A1042817390709F0A8
:1033400061C0F093A104E093A004DF91CF910895B0
:10335000EA01CE17DF07E8F54A815B819E0141153E
:103360005105B1F7E901FB83EA8349915991C40FF3
:10337000D51FEC17FD0761F4808191810296840FBF
:10338000951FE90199838883828193819B838A8336
:10339000F0E0E0E012968D919C9113970097B9F5BB
:1033A0002D913C911197CD010296820F931F209190
:1033B000A0043091A1042817390739F6309751F548
:1033C0001092A3041092A204B093A104A093A004AD
:1033D000BCCFD383C28340815181840F951FC8170E
:1033E000D90761F44E5F5F4F88819981480F591F5B
:1033F000518340838A819B81938382832115310588
:1034000009F0B0CFF093A304E093A2049ECFFD0196
:10341000DC01C0CF13821282D7CFB0E0A0E0E3E19D
:10342000FAE10C9456178C01009751F4CB010E94DD
:10343000E8188C01C801CDB7DEB7E0E10C94721733
:10344000FC01E60FF71F9C0122503109E217F30738
:1034500008F49DC0D901CD91DC911197C617D7070B
:1034600098F0C530D10530F3CE0104978617970741
:1034700008F3C61BD70B2297C193D1936D937C930E
:10348000CF010E948419D6CF5B01AC1ABD0A4C0152
:103490008C0E9D1EA091A204B091A304512C412C2E
:1034A000F12CE12C109731F58091A0049091A104AA
:1034B0008815990509F05CC04616570608F058C0F3
:1034C00080910A0190910B01009741F48DB79EB74E
:1034D00040910E0150910F01841B950BE817F907DD
:1034E00008F055C0F093A104E093A004F9017183A2
:1034F0006083A0CF8D919C91119712966C9012973A
:1035000013967C901397A815B90559F56C0142E004
:10351000C40ED11CCA14DB0420F1AC014A195B09AA
:10352000DA011296159780F062827382518340838C
:10353000D9016D937C93E114F10471F0D7011396D6
:10354000FC93EE93129776CF22968C0F9D1FF90174
:1035500091838083F301EFCFF093A304E093A2045F
:1035600069CF4816590608F42C017D01D3019ACF82
:10357000CB010E94E8187C01009749F0AE01B80128
:103580000E94CA1AC8010E948419870153CF10E013
:1035900000E050CFFB01DC0102C001900D924150D0
:1035A0005040D8F70895FC018191861721F08823B7
:1035B000D9F7992708953197CF010895FB01DC01D0
:1035C00001900D920020E1F70895FB0151915523E0
:1035D000A9F0BF01DC014D9145174111E1F759F404
:1035E000CD010190002049F04D9140154111C9F3E2
:1035F000FB014111EFCF81E090E00197089511E0C8
:10360000C7E3D1E004C0FE010E94E2182196C8334E
:10361000D107C9F7F894FFCFC80019065702000078
:1036200001010000A40480002B39393839393030C9
:1036300037343738370000000000F802580285029E
:103640006003B6029402A802000000009903580229
:103650005E049803F5030B0480030D0A0041542B0C
:10366000434D47533D22005465737420616C65726D
:10367000742E20434F206C6576656C3A20002070D4
:10368000706D00414C41524D2120434F20646574C0
:1036900065637465643A20003132330034352E316D
:1036A00033382E3135392E32313600D09FD180D08B
:1036B000B8D187D0B8D0BDD0B020D0BFD0B5D180E0
:1036C000D0B5D0B7D0B0D0B3D180D183D0B7D0BA35
:1036D000D0B820284D43555352203D203062002958
:1036E0003A0020202D20506F7765722D6F6E20726A
:1036F000657365742028D0B2D0BAD0BBD18ED18783
:10370000D0B5D0BDD0B8D0B520D0BFD0B8D182D040
:10371000B0D0BDD0B8D18F290020202D204578749D
:1037200065726E616C2072657365742028D0BAD0A2
:10373000BDD0BED0BFD0BAD0B02052657365742062
:10374000D0B8D0BBD0B820D0BFD0B8D0BD20524563
:10375000534554290020202D2042726F776E2D6F23
:1037600075742072657365742028D0BFD0B0D0B452
:10377000D0B5D0BDD0B8D0B520D0BDD0B0D0BFD19D
:1037800080D18FD0B6D0B5D0BDD0B8D18F29002090
:10379000202D205761746368646F672072657365BC
:1037A000742028D181D180D0B0D0B1D0BED182D008
:1037B000B0D0BB20D181D182D0BED180D0BED0B616
:1037C000D0B5D0B2D0BED0B920D182D0B0D0B9D08F
:1037D000BCD0B5D180290020202D20D092D0BED0E1
:1037E000B7D0BCD0BED0B6D0BDD0BE20D0BFD18067
:1037F000D0BED0B3D180D0B0D0BCD0BCD0BDD18BE6
:10380000D0B9206A756D7020D0BDD0B0203020D0E6
:10381000B8D0BBD0B82053657269616C2D44545246
:1038200020D181D0B1D180D0BED1810053746172DA
:103830007400434F3A006E616E00696E66006F76E9
:1038400066006465766963655F69643D00266D6541
:1038500073736167655F747970653D002670706D84
:103860003D0041542B48545450504152413D225543
:10387000524C222C22003230302C002F6D73672FD7
:063880006164643F0000DA
:107E8000112424B614BE80E079D021FEEBC08EE030
:107E900075D0E0ECF0E0AFE7BFEF4899FECF9096E9
:107EA000489BFDCFB4831197F1F7B2E0B083B8E1FE
:107EB000B18352D0C82F823569F466D0E0E0FEE786
:107EC000A89583E093D091D0E058F109C8F786E7F0
:107ED0003CD0EFCF8D7FD9F44CD0D82FA0E0B1E0CB
:107EE0003BD08D93DA13FCCFA0E0B1E04DD0C111AF
:107EF0000CC0F2BDE1BD8D9180BDFA9AF99A319620
:107F0000F999FECFD150A9F7E2CF48D0E0CFC330E6
:107F100041F42FD0C82F38D0859117D0C150E1F748
:107F2000D6CFC13061F425D0C82F2ED0F2BDE1BD2F
:107F3000F89A80B50AD03196C150C1F7C8CFC13583
:107F400011F488E01BD020D0C2CF9091C00095FFE3
:107F5000FCCF8093C60008952D9A259A8091C00089
:107F600087FFFCCF84FD13C0A8958091C6002D9893
:107F70000895F2DFE82FF0DFF82FEECF98E190932D
:107F80006000809360000895E7DF803219F088E098
:107F9000F5DFFFCF80EAD9CFFB01DC01E07870E8A4
:107FA0007A0F9F01E0388EE7F80728F5309629F41C
:107FB0008FE38D938FEC8C93119790E045915D91B9
:107FC00045139160A713FACFF901A058B10990FFAA
:107FD00012C083E00BD081E00D901D9007D0329647
:107FE000A713FACFF90185E001D081E187BFE895B9
:107FF00017B610FCFDCF112408950319CDCFE7402B
:00000001FF
